{
  "_format": "hh-sol-artifact-1",
  "contractName": "WannaRouter",
  "sourceName": "contracts/WannaRouter.sol",
  "abi": [
    {
      "inputs": [
        {
          "internalType": "address payable",
          "name": "_factory",
          "type": "address"
        },
        {
          "internalType": "contract WannaKIP17",
          "name": "_nft",
          "type": "address"
        }
      ],
      "stateMutability": "nonpayable",
      "type": "constructor"
    },
    {
      "inputs": [
        {
          "internalType": "uint256",
          "name": "id",
          "type": "uint256"
        },
        {
          "internalType": "uint256",
          "name": "stage",
          "type": "uint256"
        }
      ],
      "name": "claim",
      "outputs": [],
      "stateMutability": "nonpayable",
      "type": "function"
    },
    {
      "inputs": [],
      "name": "factory",
      "outputs": [
        {
          "internalType": "address payable",
          "name": "",
          "type": "address"
        }
      ],
      "stateMutability": "view",
      "type": "function"
    },
    {
      "inputs": [
        {
          "internalType": "uint256",
          "name": "id",
          "type": "uint256"
        }
      ],
      "name": "getProject",
      "outputs": [
        {
          "internalType": "address payable",
          "name": "_project",
          "type": "address"
        }
      ],
      "stateMutability": "view",
      "type": "function"
    },
    {
      "inputs": [],
      "name": "nft",
      "outputs": [
        {
          "internalType": "contract WannaKIP17",
          "name": "",
          "type": "address"
        }
      ],
      "stateMutability": "view",
      "type": "function"
    },
    {
      "inputs": [
        {
          "internalType": "uint256",
          "name": "id",
          "type": "uint256"
        },
        {
          "internalType": "uint256",
          "name": "value",
          "type": "uint256"
        }
      ],
      "name": "refund",
      "outputs": [],
      "stateMutability": "nonpayable",
      "type": "function"
    },
    {
      "inputs": [
        {
          "internalType": "uint256",
          "name": "id",
          "type": "uint256"
        }
      ],
      "name": "sponse",
      "outputs": [],
      "stateMutability": "payable",
      "type": "function"
    },
    {
      "inputs": [
        {
          "internalType": "uint256",
          "name": "id",
          "type": "uint256"
        },
        {
          "internalType": "uint8",
          "name": "procon",
          "type": "uint8"
        }
      ],
      "name": "vote",
      "outputs": [],
      "stateMutability": "nonpayable",
      "type": "function"
    },
    {
      "stateMutability": "payable",
      "type": "receive"
    }
  ],
  "bytecode": "0x60806040523480156200001157600080fd5b5060405162000d7938038062000d79833981810160405281019062000037919062000183565b816000806101000a81548173ffffffffffffffffffffffffffffffffffffffff021916908373ffffffffffffffffffffffffffffffffffffffff16021790555080600160006101000a81548173ffffffffffffffffffffffffffffffffffffffff021916908373ffffffffffffffffffffffffffffffffffffffff1602179055505050620001ca565b600080fd5b600073ffffffffffffffffffffffffffffffffffffffff82169050919050565b6000620000f282620000c5565b9050919050565b6200010481620000e5565b81146200011057600080fd5b50565b6000815190506200012481620000f9565b92915050565b60006200013782620000c5565b9050919050565b60006200014b826200012a565b9050919050565b6200015d816200013e565b81146200016957600080fd5b50565b6000815190506200017d8162000152565b92915050565b600080604083850312156200019d576200019c620000c0565b5b6000620001ad8582860162000113565b9250506020620001c0858286016200016c565b9150509250929050565b610b9f80620001da6000396000f3fe6080604052600436106100745760003560e01c8063c34902631161004e578063c3490263146100fd578063c45a015514610126578063eef47f5c14610151578063f0f3f2c81461016d5761007b565b806347ccca02146100805780635af36e3e146100ab578063943e8216146100d45761007b565b3661007b57005b600080fd5b34801561008c57600080fd5b506100956101aa565b6040516100a2919061079a565b60405180910390f35b3480156100b757600080fd5b506100d260048036038101906100cd91906107f0565b6101d0565b005b3480156100e057600080fd5b506100fb60048036038101906100f69190610869565b6102d2565b005b34801561010957600080fd5b50610124600480360381019061011f91906107f0565b6103c2565b005b34801561013257600080fd5b5061013b6104c4565b60405161014891906108ca565b60405180910390f35b61016b600480360381019061016691906108e5565b6104e8565b005b34801561017957600080fd5b50610194600480360381019061018f91906108e5565b610677565b6040516101a191906108ca565b60405180910390f35b600160009054906101000a900473ffffffffffffffffffffffffffffffffffffffff1681565b600073ffffffffffffffffffffffffffffffffffffffff166101f183610677565b73ffffffffffffffffffffffffffffffffffffffff1603610247576040517f08c379a000000000000000000000000000000000000000000000000000000000815260040161023e90610995565b60405180910390fd5b61025082610677565b73ffffffffffffffffffffffffffffffffffffffff1663410085df33836040518363ffffffff1660e01b815260040161028a9291906109c4565b6020604051808303816000875af11580156102a9573d6000803e3d6000fd5b505050506040513d601f19601f820116820180604052508101906102cd9190610a02565b505050565b600073ffffffffffffffffffffffffffffffffffffffff166102f383610677565b73ffffffffffffffffffffffffffffffffffffffff1603610349576040517f08c379a000000000000000000000000000000000000000000000000000000000815260040161034090610995565b60405180910390fd5b61035282610677565b73ffffffffffffffffffffffffffffffffffffffff1663bceb514d33836040518363ffffffff1660e01b815260040161038c929190610a5f565b600060405180830381600087803b1580156103a657600080fd5b505af11580156103ba573d6000803e3d6000fd5b505050505050565b600073ffffffffffffffffffffffffffffffffffffffff166103e383610677565b73ffffffffffffffffffffffffffffffffffffffff1603610439576040517f08c379a000000000000000000000000000000000000000000000000000000000815260040161043090610995565b60405180910390fd5b61044282610677565b73ffffffffffffffffffffffffffffffffffffffff1663ddd5e1b282336040518363ffffffff1660e01b815260040161047c929190610a88565b6020604051808303816000875af115801561049b573d6000803e3d6000fd5b505050506040513d601f19601f820116820180604052508101906104bf9190610a02565b505050565b60008054906101000a900473ffffffffffffffffffffffffffffffffffffffff1681565b600073ffffffffffffffffffffffffffffffffffffffff1661050982610677565b73ffffffffffffffffffffffffffffffffffffffff160361055f576040517f08c379a000000000000000000000000000000000000000000000000000000000815260040161055690610995565b60405180910390fd5b61056881610677565b73ffffffffffffffffffffffffffffffffffffffff16636a62784234336040518363ffffffff1660e01b81526004016105a19190610ab1565b60206040518083038185885af11580156105bf573d6000803e3d6000fd5b50505050506040513d601f19601f820116820180604052508101906105e49190610a02565b50600160009054906101000a900473ffffffffffffffffffffffffffffffffffffffff1673ffffffffffffffffffffffffffffffffffffffff166340c10f1933836040518363ffffffff1660e01b8152600401610642929190610acc565b600060405180830381600087803b15801561065c57600080fd5b505af1158015610670573d6000803e3d6000fd5b5050505050565b60008060009054906101000a900473ffffffffffffffffffffffffffffffffffffffff1673ffffffffffffffffffffffffffffffffffffffff166353b3194c836040518263ffffffff1660e01b81526004016106d39190610af5565b602060405180830381865afa1580156106f0573d6000803e3d6000fd5b505050506040513d601f19601f820116820180604052508101906107149190610b3c565b9050919050565b600073ffffffffffffffffffffffffffffffffffffffff82169050919050565b6000819050919050565b600061076061075b6107568461071b565b61073b565b61071b565b9050919050565b600061077282610745565b9050919050565b600061078482610767565b9050919050565b61079481610779565b82525050565b60006020820190506107af600083018461078b565b92915050565b600080fd5b6000819050919050565b6107cd816107ba565b81146107d857600080fd5b50565b6000813590506107ea816107c4565b92915050565b60008060408385031215610807576108066107b5565b5b6000610815858286016107db565b9250506020610826858286016107db565b9150509250929050565b600060ff82169050919050565b61084681610830565b811461085157600080fd5b50565b6000813590506108638161083d565b92915050565b600080604083850312156108805761087f6107b5565b5b600061088e858286016107db565b925050602061089f85828601610854565b9150509250929050565b60006108b48261071b565b9050919050565b6108c4816108a9565b82525050565b60006020820190506108df60008301846108bb565b92915050565b6000602082840312156108fb576108fa6107b5565b5b6000610909848285016107db565b91505092915050565b600082825260208201905092915050565b7f57616e6e61526f757465723a2070726f6a656374206e6f74207374617274656460008201527f2079657400000000000000000000000000000000000000000000000000000000602082015250565b600061097f602483610912565b915061098a82610923565b604082019050919050565b600060208201905081810360008301526109ae81610972565b9050919050565b6109be816107ba565b82525050565b60006040820190506109d960008301856108bb565b6109e660208301846109b5565b9392505050565b6000815190506109fc816107c4565b92915050565b600060208284031215610a1857610a176107b5565b5b6000610a26848285016109ed565b91505092915050565b6000610a3a8261071b565b9050919050565b610a4a81610a2f565b82525050565b610a5981610830565b82525050565b6000604082019050610a746000830185610a41565b610a816020830184610a50565b9392505050565b6000604082019050610a9d60008301856109b5565b610aaa60208301846108bb565b9392505050565b6000602082019050610ac66000830184610a41565b92915050565b6000604082019050610ae16000830185610a41565b610aee60208301846109b5565b9392505050565b6000602082019050610b0a60008301846109b5565b92915050565b610b19816108a9565b8114610b2457600080fd5b50565b600081519050610b3681610b10565b92915050565b600060208284031215610b5257610b516107b5565b5b6000610b6084828501610b27565b9150509291505056fea2646970667358221220d12d5beb4e1e44247f797d325da7a464ed31f654e4b27bd54b5818a8bf5fb92864736f6c63430008110033",
  "linkReferences": {},
  "deployedLinkReferences": {}
}