{
  "_format": "hh-sol-artifact-1",
  "contractName": "WannaKIP17",
  "sourceName": "contracts/WannaKIP17.sol",
  "abi": [
    {
      "inputs": [
        {
          "internalType": "string",
          "name": "name",
          "type": "string"
        },
        {
          "internalType": "string",
          "name": "symbol",
          "type": "string"
        }
      ],
      "stateMutability": "nonpayable",
      "type": "constructor"
    },
    {
      "anonymous": false,
      "inputs": [
        {
          "indexed": true,
          "internalType": "address",
          "name": "owner",
          "type": "address"
        },
        {
          "indexed": true,
          "internalType": "address",
          "name": "approved",
          "type": "address"
        },
        {
          "indexed": true,
          "internalType": "uint256",
          "name": "tokenId",
          "type": "uint256"
        }
      ],
      "name": "Approval",
      "type": "event"
    },
    {
      "anonymous": false,
      "inputs": [
        {
          "indexed": true,
          "internalType": "address",
          "name": "owner",
          "type": "address"
        },
        {
          "indexed": true,
          "internalType": "address",
          "name": "operator",
          "type": "address"
        },
        {
          "indexed": false,
          "internalType": "bool",
          "name": "approved",
          "type": "bool"
        }
      ],
      "name": "ApprovalForAll",
      "type": "event"
    },
    {
      "anonymous": false,
      "inputs": [
        {
          "indexed": true,
          "internalType": "address",
          "name": "previousOwner",
          "type": "address"
        },
        {
          "indexed": true,
          "internalType": "address",
          "name": "newOwner",
          "type": "address"
        }
      ],
      "name": "OwnershipTransferred",
      "type": "event"
    },
    {
      "anonymous": false,
      "inputs": [
        {
          "indexed": true,
          "internalType": "address",
          "name": "from",
          "type": "address"
        },
        {
          "indexed": true,
          "internalType": "address",
          "name": "to",
          "type": "address"
        },
        {
          "indexed": true,
          "internalType": "uint256",
          "name": "tokenId",
          "type": "uint256"
        }
      ],
      "name": "Transfer",
      "type": "event"
    },
    {
      "inputs": [
        {
          "internalType": "address",
          "name": "to",
          "type": "address"
        },
        {
          "internalType": "uint256",
          "name": "tokenId",
          "type": "uint256"
        }
      ],
      "name": "approve",
      "outputs": [],
      "stateMutability": "nonpayable",
      "type": "function"
    },
    {
      "inputs": [
        {
          "internalType": "address",
          "name": "owner",
          "type": "address"
        }
      ],
      "name": "balanceOf",
      "outputs": [
        {
          "internalType": "uint256",
          "name": "",
          "type": "uint256"
        }
      ],
      "stateMutability": "view",
      "type": "function"
    },
    {
      "inputs": [],
      "name": "baseURI",
      "outputs": [
        {
          "internalType": "string",
          "name": "",
          "type": "string"
        }
      ],
      "stateMutability": "view",
      "type": "function"
    },
    {
      "inputs": [],
      "name": "baseURIBack",
      "outputs": [
        {
          "internalType": "string",
          "name": "",
          "type": "string"
        }
      ],
      "stateMutability": "view",
      "type": "function"
    },
    {
      "inputs": [
        {
          "internalType": "uint256",
          "name": "tokenId",
          "type": "uint256"
        }
      ],
      "name": "getApproved",
      "outputs": [
        {
          "internalType": "address",
          "name": "",
          "type": "address"
        }
      ],
      "stateMutability": "view",
      "type": "function"
    },
    {
      "inputs": [
        {
          "internalType": "address",
          "name": "owner",
          "type": "address"
        },
        {
          "internalType": "address",
          "name": "operator",
          "type": "address"
        }
      ],
      "name": "isApprovedForAll",
      "outputs": [
        {
          "internalType": "bool",
          "name": "",
          "type": "bool"
        }
      ],
      "stateMutability": "view",
      "type": "function"
    },
    {
      "inputs": [
        {
          "internalType": "address",
          "name": "to",
          "type": "address"
        },
        {
          "internalType": "uint256",
          "name": "_project_id",
          "type": "uint256"
        }
      ],
      "name": "mint",
      "outputs": [],
      "stateMutability": "nonpayable",
      "type": "function"
    },
    {
      "inputs": [
        {
          "internalType": "address",
          "name": "",
          "type": "address"
        }
      ],
      "name": "minter",
      "outputs": [
        {
          "internalType": "bool",
          "name": "",
          "type": "bool"
        }
      ],
      "stateMutability": "view",
      "type": "function"
    },
    {
      "inputs": [],
      "name": "name",
      "outputs": [
        {
          "internalType": "string",
          "name": "",
          "type": "string"
        }
      ],
      "stateMutability": "view",
      "type": "function"
    },
    {
      "inputs": [],
      "name": "owner",
      "outputs": [
        {
          "internalType": "address",
          "name": "",
          "type": "address"
        }
      ],
      "stateMutability": "view",
      "type": "function"
    },
    {
      "inputs": [
        {
          "internalType": "uint256",
          "name": "tokenId",
          "type": "uint256"
        }
      ],
      "name": "ownerOf",
      "outputs": [
        {
          "internalType": "address",
          "name": "",
          "type": "address"
        }
      ],
      "stateMutability": "view",
      "type": "function"
    },
    {
      "inputs": [
        {
          "internalType": "uint256",
          "name": "",
          "type": "uint256"
        }
      ],
      "name": "project_id",
      "outputs": [
        {
          "internalType": "uint256",
          "name": "",
          "type": "uint256"
        }
      ],
      "stateMutability": "view",
      "type": "function"
    },
    {
      "inputs": [],
      "name": "renounceOwnership",
      "outputs": [],
      "stateMutability": "nonpayable",
      "type": "function"
    },
    {
      "inputs": [
        {
          "internalType": "address",
          "name": "from",
          "type": "address"
        },
        {
          "internalType": "address",
          "name": "to",
          "type": "address"
        },
        {
          "internalType": "uint256",
          "name": "tokenId",
          "type": "uint256"
        }
      ],
      "name": "safeTransferFrom",
      "outputs": [],
      "stateMutability": "nonpayable",
      "type": "function"
    },
    {
      "inputs": [
        {
          "internalType": "address",
          "name": "from",
          "type": "address"
        },
        {
          "internalType": "address",
          "name": "to",
          "type": "address"
        },
        {
          "internalType": "uint256",
          "name": "tokenId",
          "type": "uint256"
        },
        {
          "internalType": "bytes",
          "name": "_data",
          "type": "bytes"
        }
      ],
      "name": "safeTransferFrom",
      "outputs": [],
      "stateMutability": "nonpayable",
      "type": "function"
    },
    {
      "inputs": [
        {
          "internalType": "address",
          "name": "operator",
          "type": "address"
        },
        {
          "internalType": "bool",
          "name": "approved",
          "type": "bool"
        }
      ],
      "name": "setApprovalForAll",
      "outputs": [],
      "stateMutability": "nonpayable",
      "type": "function"
    },
    {
      "inputs": [
        {
          "internalType": "string",
          "name": "_baseURI",
          "type": "string"
        }
      ],
      "name": "setBaseURI",
      "outputs": [],
      "stateMutability": "nonpayable",
      "type": "function"
    },
    {
      "inputs": [
        {
          "internalType": "string",
          "name": "_baseURIBack",
          "type": "string"
        }
      ],
      "name": "setBaseURIBack",
      "outputs": [],
      "stateMutability": "nonpayable",
      "type": "function"
    },
    {
      "inputs": [
        {
          "internalType": "address",
          "name": "_minter",
          "type": "address"
        }
      ],
      "name": "setMinter",
      "outputs": [],
      "stateMutability": "nonpayable",
      "type": "function"
    },
    {
      "inputs": [
        {
          "internalType": "bytes4",
          "name": "interfaceId",
          "type": "bytes4"
        }
      ],
      "name": "supportsInterface",
      "outputs": [
        {
          "internalType": "bool",
          "name": "",
          "type": "bool"
        }
      ],
      "stateMutability": "view",
      "type": "function"
    },
    {
      "inputs": [],
      "name": "symbol",
      "outputs": [
        {
          "internalType": "string",
          "name": "",
          "type": "string"
        }
      ],
      "stateMutability": "view",
      "type": "function"
    },
    {
      "inputs": [
        {
          "internalType": "uint256",
          "name": "index",
          "type": "uint256"
        }
      ],
      "name": "tokenByIndex",
      "outputs": [
        {
          "internalType": "uint256",
          "name": "",
          "type": "uint256"
        }
      ],
      "stateMutability": "view",
      "type": "function"
    },
    {
      "inputs": [
        {
          "internalType": "address",
          "name": "owner",
          "type": "address"
        },
        {
          "internalType": "uint256",
          "name": "index",
          "type": "uint256"
        }
      ],
      "name": "tokenOfOwnerByIndex",
      "outputs": [
        {
          "internalType": "uint256",
          "name": "",
          "type": "uint256"
        }
      ],
      "stateMutability": "view",
      "type": "function"
    },
    {
      "inputs": [
        {
          "internalType": "uint256",
          "name": "tokenId",
          "type": "uint256"
        }
      ],
      "name": "tokenURI",
      "outputs": [
        {
          "internalType": "string",
          "name": "",
          "type": "string"
        }
      ],
      "stateMutability": "view",
      "type": "function"
    },
    {
      "inputs": [],
      "name": "totalSupply",
      "outputs": [
        {
          "internalType": "uint256",
          "name": "",
          "type": "uint256"
        }
      ],
      "stateMutability": "view",
      "type": "function"
    },
    {
      "inputs": [
        {
          "internalType": "address",
          "name": "from",
          "type": "address"
        },
        {
          "internalType": "address",
          "name": "to",
          "type": "address"
        },
        {
          "internalType": "uint256",
          "name": "tokenId",
          "type": "uint256"
        }
      ],
      "name": "transferFrom",
      "outputs": [],
      "stateMutability": "nonpayable",
      "type": "function"
    },
    {
      "inputs": [
        {
          "internalType": "address",
          "name": "newOwner",
          "type": "address"
        }
      ],
      "name": "transferOwnership",
      "outputs": [],
      "stateMutability": "nonpayable",
      "type": "function"
    }
  ],
  "bytecode": "0x6080604052604051806080016040528060428152602001620042fc60429139600b90816200002e919062000441565b506040518060400160405280600581526020017f2e6a736f6e000000000000000000000000000000000000000000000000000000815250600c908162000075919062000441565b503480156200008357600080fd5b506040516200433e3803806200433e8339818101604052810190620000a991906200068c565b81818160009081620000bc919062000441565b508060019081620000ce919062000441565b505050620000f1620000e5620000f960201b60201c565b6200010160201b60201c565b505062000711565b600033905090565b6000600a60009054906101000a900473ffffffffffffffffffffffffffffffffffffffff16905081600a60006101000a81548173ffffffffffffffffffffffffffffffffffffffff021916908373ffffffffffffffffffffffffffffffffffffffff1602179055508173ffffffffffffffffffffffffffffffffffffffff168173ffffffffffffffffffffffffffffffffffffffff167f8be0079c531659141344cd1fd0a4f28419497f9722a3daafe3b4186f6b6457e060405160405180910390a35050565b600081519050919050565b7f4e487b7100000000000000000000000000000000000000000000000000000000600052604160045260246000fd5b7f4e487b7100000000000000000000000000000000000000000000000000000000600052602260045260246000fd5b600060028204905060018216806200024957607f821691505b6020821081036200025f576200025e62000201565b5b50919050565b60008190508160005260206000209050919050565b60006020601f8301049050919050565b600082821b905092915050565b600060088302620002c97fffffffffffffffffffffffffffffffffffffffffffffffffffffffffffffffff826200028a565b620002d586836200028a565b95508019841693508086168417925050509392505050565b6000819050919050565b6000819050919050565b6000620003226200031c6200031684620002ed565b620002f7565b620002ed565b9050919050565b6000819050919050565b6200033e8362000301565b620003566200034d8262000329565b84845462000297565b825550505050565b600090565b6200036d6200035e565b6200037a81848462000333565b505050565b5b81811015620003a2576200039660008262000363565b60018101905062000380565b5050565b601f821115620003f157620003bb8162000265565b620003c6846200027a565b81016020851015620003d6578190505b620003ee620003e5856200027a565b8301826200037f565b50505b505050565b600082821c905092915050565b60006200041660001984600802620003f6565b1980831691505092915050565b600062000431838362000403565b9150826002028217905092915050565b6200044c82620001c7565b67ffffffffffffffff811115620004685762000467620001d2565b5b62000474825462000230565b62000481828285620003a6565b600060209050601f831160018114620004b95760008415620004a4578287015190505b620004b0858262000423565b86555062000520565b601f198416620004c98662000265565b60005b82811015620004f357848901518255600182019150602085019450602081019050620004cc565b868310156200051357848901516200050f601f89168262000403565b8355505b6001600288020188555050505b505050505050565b6000604051905090565b600080fd5b600080fd5b600080fd5b600080fd5b6000601f19601f8301169050919050565b620005628262000546565b810181811067ffffffffffffffff82111715620005845762000583620001d2565b5b80604052505050565b60006200059962000528565b9050620005a7828262000557565b919050565b600067ffffffffffffffff821115620005ca57620005c9620001d2565b5b620005d58262000546565b9050602081019050919050565b60005b8381101562000602578082015181840152602081019050620005e5565b60008484015250505050565b6000620006256200061f84620005ac565b6200058d565b90508281526020810184848401111562000644576200064362000541565b5b62000651848285620005e2565b509392505050565b600082601f8301126200067157620006706200053c565b5b8151620006838482602086016200060e565b91505092915050565b60008060408385031215620006a657620006a562000532565b5b600083015167ffffffffffffffff811115620006c757620006c662000537565b5b620006d58582860162000659565b925050602083015167ffffffffffffffff811115620006f957620006f862000537565b5b620007078582860162000659565b9150509250929050565b613bdb80620007216000396000f3fe608060405234801561001057600080fd5b50600436106101a95760003560e01c806355f804b3116100f9578063a22cb46511610097578063d613a70211610071578063d613a702146104cc578063e985e9c5146104fc578063f2fde38b1461052c578063fca3b5aa14610548576101a9565b8063a22cb46514610464578063b88d4fde14610480578063c87b56dd1461049c576101a9565b806370a08231116100d357806370a08231146103ee578063715018a61461041e5780638da5cb5b1461042857806395d89b4114610446576101a9565b806355f804b3146103845780636352211e146103a05780636c0360eb146103d0576101a9565b80632f745c591161016657806340c10f191161014057806340c10f191461030057806342842e0e1461031c5780634d1a505e146103385780634f6ccce714610354576101a9565b80632f745c5914610282578063346c810c146102b25780633dd08c38146102d0576101a9565b806301ffc9a7146101ae57806306fdde03146101de578063081812fc146101fc578063095ea7b31461022c57806318160ddd1461024857806323b872dd14610266575b600080fd5b6101c860048036038101906101c391906125be565b610564565b6040516101d59190612606565b60405180910390f35b6101e66105de565b6040516101f391906126b1565b60405180910390f35b61021660048036038101906102119190612709565b610670565b6040516102239190612777565b60405180910390f35b610246600480360381019061024191906127be565b6106f5565b005b61025061080c565b60405161025d919061280d565b60405180910390f35b610280600480360381019061027b9190612828565b610819565b005b61029c600480360381019061029791906127be565b610879565b6040516102a9919061280d565b60405180910390f35b6102ba61091e565b6040516102c791906126b1565b60405180910390f35b6102ea60048036038101906102e5919061287b565b6109ac565b6040516102f79190612606565b60405180910390f35b61031a600480360381019061031591906127be565b6109cc565b005b61033660048036038101906103319190612828565b610a9e565b005b610352600480360381019061034d91906129dd565b610abe565b005b61036e60048036038101906103699190612709565b610b4d565b60405161037b919061280d565b60405180910390f35b61039e600480360381019061039991906129dd565b610bbe565b005b6103ba60048036038101906103b59190612709565b610c4d565b6040516103c79190612777565b60405180910390f35b6103d8610cfe565b6040516103e591906126b1565b60405180910390f35b6104086004803603810190610403919061287b565b610d8c565b604051610415919061280d565b60405180910390f35b610426610e43565b005b610430610ecb565b60405161043d9190612777565b60405180910390f35b61044e610ef5565b60405161045b91906126b1565b60405180910390f35b61047e60048036038101906104799190612a52565b610f87565b005b61049a60048036038101906104959190612b33565b610f9d565b005b6104b660048036038101906104b19190612709565b610fff565b6040516104c391906126b1565b60405180910390f35b6104e660048036038101906104e19190612709565b6111d4565b6040516104f3919061280d565b60405180910390f35b61051660048036038101906105119190612bb6565b6111ec565b6040516105239190612606565b60405180910390f35b6105466004803603810190610541919061287b565b611280565b005b610562600480360381019061055d919061287b565b611377565b005b60007f780e9d63000000000000000000000000000000000000000000000000000000007bffffffffffffffffffffffffffffffffffffffffffffffffffffffff1916827bffffffffffffffffffffffffffffffffffffffffffffffffffffffff191614806105d757506105d68261144e565b5b9050919050565b6060600080546105ed90612c25565b80601f016020809104026020016040519081016040528092919081815260200182805461061990612c25565b80156106665780601f1061063b57610100808354040283529160200191610666565b820191906000526020600020905b81548152906001019060200180831161064957829003601f168201915b5050505050905090565b600061067b82611530565b6106ba576040517f08c379a00000000000000000000000000000000000000000000000000000000081526004016106b190612cc8565b60405180910390fd5b6004600083815260200190815260200160002060009054906101000a900473ffffffffffffffffffffffffffffffffffffffff169050919050565b600061070082610c4d565b90508073ffffffffffffffffffffffffffffffffffffffff168373ffffffffffffffffffffffffffffffffffffffff1603610770576040517f08c379a000000000000000000000000000000000000000000000000000000000815260040161076790612d34565b60405180910390fd5b8073ffffffffffffffffffffffffffffffffffffffff1661078f61159c565b73ffffffffffffffffffffffffffffffffffffffff1614806107be57506107bd816107b861159c565b6111ec565b5b6107fd576040517f08c379a00000000000000000000000000000000000000000000000000000000081526004016107f490612dc6565b60405180910390fd5b61080783836115a4565b505050565b6000600880549050905090565b61082a61082461159c565b8261165d565b610869576040517f08c379a000000000000000000000000000000000000000000000000000000000815260040161086090612e58565b60405180910390fd5b61087483838361173b565b505050565b600061088483610d8c565b82106108c5576040517f08c379a00000000000000000000000000000000000000000000000000000000081526004016108bc90612eea565b60405180910390fd5b600660008473ffffffffffffffffffffffffffffffffffffffff1673ffffffffffffffffffffffffffffffffffffffff168152602001908152602001600020600083815260200190815260200160002054905092915050565b600c805461092b90612c25565b80601f016020809104026020016040519081016040528092919081815260200182805461095790612c25565b80156109a45780601f10610979576101008083540402835291602001916109a4565b820191906000526020600020905b81548152906001019060200180831161098757829003601f168201915b505050505081565b600d6020528060005260406000206000915054906101000a900460ff1681565b600d60003373ffffffffffffffffffffffffffffffffffffffff1673ffffffffffffffffffffffffffffffffffffffff16815260200190815260200160002060009054906101000a900460ff16610a58576040517f08c379a0000000000000000000000000000000000000000000000000000000008152600401610a4f90612f56565b60405180910390fd5b610a6482600f546117df565b80600e6000600f54815260200190815260200160002081905550610a946001600f546119b890919063ffffffff16565b600f819055505050565b610ab983838360405180602001604052806000815250610f9d565b505050565b610ac661159c565b73ffffffffffffffffffffffffffffffffffffffff16610ae4610ecb565b73ffffffffffffffffffffffffffffffffffffffff1614610b3a576040517f08c379a0000000000000000000000000000000000000000000000000000000008152600401610b3190612fc2565b60405180910390fd5b80600c9081610b49919061318e565b5050565b6000610b5761080c565b8210610b98576040517f08c379a0000000000000000000000000000000000000000000000000000000008152600401610b8f906132d2565b60405180910390fd5b60088281548110610bac57610bab6132f2565b5b90600052602060002001549050919050565b610bc661159c565b73ffffffffffffffffffffffffffffffffffffffff16610be4610ecb565b73ffffffffffffffffffffffffffffffffffffffff1614610c3a576040517f08c379a0000000000000000000000000000000000000000000000000000000008152600401610c3190612fc2565b60405180910390fd5b80600b9081610c49919061318e565b5050565b6000806002600084815260200190815260200160002060009054906101000a900473ffffffffffffffffffffffffffffffffffffffff169050600073ffffffffffffffffffffffffffffffffffffffff168173ffffffffffffffffffffffffffffffffffffffff1603610cf5576040517f08c379a0000000000000000000000000000000000000000000000000000000008152600401610cec90613393565b60405180910390fd5b80915050919050565b600b8054610d0b90612c25565b80601f0160208091040260200160405190810160405280929190818152602001828054610d3790612c25565b8015610d845780601f10610d5957610100808354040283529160200191610d84565b820191906000526020600020905b815481529060010190602001808311610d6757829003601f168201915b505050505081565b60008073ffffffffffffffffffffffffffffffffffffffff168273ffffffffffffffffffffffffffffffffffffffff1603610dfc576040517f08c379a0000000000000000000000000000000000000000000000000000000008152600401610df390613425565b60405180910390fd5b600360008373ffffffffffffffffffffffffffffffffffffffff1673ffffffffffffffffffffffffffffffffffffffff168152602001908152602001600020549050919050565b610e4b61159c565b73ffffffffffffffffffffffffffffffffffffffff16610e69610ecb565b73ffffffffffffffffffffffffffffffffffffffff1614610ebf576040517f08c379a0000000000000000000000000000000000000000000000000000000008152600401610eb690612fc2565b60405180910390fd5b610ec960006119ce565b565b6000600a60009054906101000a900473ffffffffffffffffffffffffffffffffffffffff16905090565b606060018054610f0490612c25565b80601f0160208091040260200160405190810160405280929190818152602001828054610f3090612c25565b8015610f7d5780601f10610f5257610100808354040283529160200191610f7d565b820191906000526020600020905b815481529060010190602001808311610f6057829003601f168201915b5050505050905090565b610f99610f9261159c565b8383611a94565b5050565b610fae610fa861159c565b8361165d565b610fed576040517f08c379a0000000000000000000000000000000000000000000000000000000008152600401610fe490612e58565b60405180910390fd5b610ff984848484611c00565b50505050565b606061100a82611530565b611049576040517f08c379a0000000000000000000000000000000000000000000000000000000008152600401611040906134b7565b60405180910390fd5b6000600b805461105890612c25565b80601f016020809104026020016040519081016040528092919081815260200182805461108490612c25565b80156110d15780601f106110a6576101008083540402835291602001916110d1565b820191906000526020600020905b8154815290600101906020018083116110b457829003601f168201915b5050505050905060606000600c80546110e990612c25565b80601f016020809104026020016040519081016040528092919081815260200182805461111590612c25565b80156111625780601f1061113757610100808354040283529160200191611162565b820191906000526020600020905b81548152906001019060200180831161114557829003601f168201915b50505050509050600085905061117781611c6f565b92506000600b805461118890612c25565b9050116111a457604051806020016040528060008152506111c9565b8383836040516020016111b993929190613513565b6040516020818303038152906040525b945050505050919050565b600e6020528060005260406000206000915090505481565b6000600560008473ffffffffffffffffffffffffffffffffffffffff1673ffffffffffffffffffffffffffffffffffffffff16815260200190815260200160002060008373ffffffffffffffffffffffffffffffffffffffff1673ffffffffffffffffffffffffffffffffffffffff16815260200190815260200160002060009054906101000a900460ff16905092915050565b61128861159c565b73ffffffffffffffffffffffffffffffffffffffff166112a6610ecb565b73ffffffffffffffffffffffffffffffffffffffff16146112fc576040517f08c379a00000000000000000000000000000000000000000000000000000000081526004016112f390612fc2565b60405180910390fd5b600073ffffffffffffffffffffffffffffffffffffffff168173ffffffffffffffffffffffffffffffffffffffff160361136b576040517f08c379a0000000000000000000000000000000000000000000000000000000008152600401611362906135b6565b60405180910390fd5b611374816119ce565b50565b61137f61159c565b73ffffffffffffffffffffffffffffffffffffffff1661139d610ecb565b73ffffffffffffffffffffffffffffffffffffffff16146113f3576040517f08c379a00000000000000000000000000000000000000000000000000000000081526004016113ea90612fc2565b60405180910390fd5b6001600d60008373ffffffffffffffffffffffffffffffffffffffff1673ffffffffffffffffffffffffffffffffffffffff16815260200190815260200160002060006101000a81548160ff02191690831515021790555050565b60007f80ac58cd000000000000000000000000000000000000000000000000000000007bffffffffffffffffffffffffffffffffffffffffffffffffffffffff1916827bffffffffffffffffffffffffffffffffffffffffffffffffffffffff1916148061151957507f5b5e139f000000000000000000000000000000000000000000000000000000007bffffffffffffffffffffffffffffffffffffffffffffffffffffffff1916827bffffffffffffffffffffffffffffffffffffffffffffffffffffffff1916145b80611529575061152882611df7565b5b9050919050565b60008073ffffffffffffffffffffffffffffffffffffffff166002600084815260200190815260200160002060009054906101000a900473ffffffffffffffffffffffffffffffffffffffff1673ffffffffffffffffffffffffffffffffffffffff1614159050919050565b600033905090565b816004600083815260200190815260200160002060006101000a81548173ffffffffffffffffffffffffffffffffffffffff021916908373ffffffffffffffffffffffffffffffffffffffff160217905550808273ffffffffffffffffffffffffffffffffffffffff1661161783610c4d565b73ffffffffffffffffffffffffffffffffffffffff167f8c5be1e5ebec7d5bd14f71427d1e84f3dd0314c0f7b2291e5b200ac8c7c3b92560405160405180910390a45050565b600061166882611530565b6116a7576040517f08c379a000000000000000000000000000000000000000000000000000000000815260040161169e90613648565b60405180910390fd5b60006116b283610c4d565b90508073ffffffffffffffffffffffffffffffffffffffff168473ffffffffffffffffffffffffffffffffffffffff1614806116f457506116f381856111ec565b5b8061173257508373ffffffffffffffffffffffffffffffffffffffff1661171a84610670565b73ffffffffffffffffffffffffffffffffffffffff16145b91505092915050565b600160021061177f576040517f08c379a0000000000000000000000000000000000000000000000000000000008152600401611776906136b4565b60405180910390fd5b808273ffffffffffffffffffffffffffffffffffffffff168473ffffffffffffffffffffffffffffffffffffffff167fddf252ad1be2c89b69c2b068fc378daa952ba7f163c4a11628f55a4df523b3ef60405160405180910390a4505050565b600073ffffffffffffffffffffffffffffffffffffffff168273ffffffffffffffffffffffffffffffffffffffff160361184e576040517f08c379a000000000000000000000000000000000000000000000000000000000815260040161184590613720565b60405180910390fd5b61185781611530565b15611897576040517f08c379a000000000000000000000000000000000000000000000000000000000815260040161188e9061378c565b60405180910390fd5b6118a360008383611e61565b6001600360008473ffffffffffffffffffffffffffffffffffffffff1673ffffffffffffffffffffffffffffffffffffffff16815260200190815260200160002060008282546118f391906137db565b92505081905550816002600083815260200190815260200160002060006101000a81548173ffffffffffffffffffffffffffffffffffffffff021916908373ffffffffffffffffffffffffffffffffffffffff160217905550808273ffffffffffffffffffffffffffffffffffffffff16600073ffffffffffffffffffffffffffffffffffffffff167fddf252ad1be2c89b69c2b068fc378daa952ba7f163c4a11628f55a4df523b3ef60405160405180910390a46119b460008383611f73565b5050565b600081836119c691906137db565b905092915050565b6000600a60009054906101000a900473ffffffffffffffffffffffffffffffffffffffff16905081600a60006101000a81548173ffffffffffffffffffffffffffffffffffffffff021916908373ffffffffffffffffffffffffffffffffffffffff1602179055508173ffffffffffffffffffffffffffffffffffffffff168173ffffffffffffffffffffffffffffffffffffffff167f8be0079c531659141344cd1fd0a4f28419497f9722a3daafe3b4186f6b6457e060405160405180910390a35050565b8173ffffffffffffffffffffffffffffffffffffffff168373ffffffffffffffffffffffffffffffffffffffff1603611b02576040517f08c379a0000000000000000000000000000000000000000000000000000000008152600401611af99061385b565b60405180910390fd5b80600560008573ffffffffffffffffffffffffffffffffffffffff1673ffffffffffffffffffffffffffffffffffffffff16815260200190815260200160002060008473ffffffffffffffffffffffffffffffffffffffff1673ffffffffffffffffffffffffffffffffffffffff16815260200190815260200160002060006101000a81548160ff0219169083151502179055508173ffffffffffffffffffffffffffffffffffffffff168373ffffffffffffffffffffffffffffffffffffffff167f17307eab39ab6107e8899845ad3d59bd9653f200f220920489ca2b5937696c3183604051611bf39190612606565b60405180910390a3505050565b611c0b84848461173b565b611c1784848484611f78565b80611c2a5750611c29848484846120ce565b5b611c69576040517f08c379a0000000000000000000000000000000000000000000000000000000008152600401611c6090613913565b60405180910390fd5b50505050565b606060008203611cb6576040518060400160405280600181526020017f30000000000000000000000000000000000000000000000000000000000000008152509050611df2565b600082905060005b60008214611ce8578080611cd190613933565b915050600a82611ce191906139aa565b9150611cbe565b60008167ffffffffffffffff811115611d0457611d036128b2565b5b6040519080825280601f01601f191660200182016040528015611d365781602001600182028036833780820191505090505b50905060008290505b60008614611dea57600181611d5491906139db565b90506000600a8088611d6691906139aa565b611d709190613a0f565b87611d7b91906139db565b6030611d879190613a5e565b905060008160f81b905080848481518110611da557611da46132f2565b5b60200101907effffffffffffffffffffffffffffffffffffffffffffffffffffffffffffff1916908160001a905350600a88611de191906139aa565b97505050611d3f565b819450505050505b919050565b60007f01ffc9a7000000000000000000000000000000000000000000000000000000007bffffffffffffffffffffffffffffffffffffffffffffffffffffffff1916827bffffffffffffffffffffffffffffffffffffffffffffffffffffffff1916149050919050565b611e6c838383612224565b600073ffffffffffffffffffffffffffffffffffffffff168373ffffffffffffffffffffffffffffffffffffffff1603611eae57611ea981612229565b611eed565b8173ffffffffffffffffffffffffffffffffffffffff168373ffffffffffffffffffffffffffffffffffffffff1614611eec57611eeb8382612272565b5b5b600073ffffffffffffffffffffffffffffffffffffffff168273ffffffffffffffffffffffffffffffffffffffff1603611f2f57611f2a816123df565b611f6e565b8273ffffffffffffffffffffffffffffffffffffffff168273ffffffffffffffffffffffffffffffffffffffff1614611f6d57611f6c82826124b0565b5b5b505050565b505050565b6000611f998473ffffffffffffffffffffffffffffffffffffffff1661252f565b156120c1578373ffffffffffffffffffffffffffffffffffffffff16636745782b611fc261159c565b8786866040518563ffffffff1660e01b8152600401611fe49493929190613ae8565b6020604051808303816000875af192505050801561202057506040513d601f19601f8201168201806040525081019061201d9190613b49565b60015b612071573d8060008114612050576040519150601f19603f3d011682016040523d82523d6000602084013e612055565b606091505b5060008151036120695760009150506120c6565b805181602001fd5b636745782b60e01b7bffffffffffffffffffffffffffffffffffffffffffffffffffffffff1916817bffffffffffffffffffffffffffffffffffffffffffffffffffffffff1916149150506120c6565b600190505b949350505050565b60006120ef8473ffffffffffffffffffffffffffffffffffffffff1661252f565b15612217578373ffffffffffffffffffffffffffffffffffffffff1663150b7a0261211861159c565b8786866040518563ffffffff1660e01b815260040161213a9493929190613ae8565b6020604051808303816000875af192505050801561217657506040513d601f19601f820116820180604052508101906121739190613b49565b60015b6121c7573d80600081146121a6576040519150601f19603f3d011682016040523d82523d6000602084013e6121ab565b606091505b5060008151036121bf57600091505061221c565b805181602001fd5b63150b7a0260e01b7bffffffffffffffffffffffffffffffffffffffffffffffffffffffff1916817bffffffffffffffffffffffffffffffffffffffffffffffffffffffff19161491505061221c565b600190505b949350505050565b505050565b6008805490506009600083815260200190815260200160002081905550600881908060018154018082558091505060019003906000526020600020016000909190919091505550565b6000600161227f84610d8c565b61228991906139db565b905060006007600084815260200190815260200160002054905081811461236e576000600660008673ffffffffffffffffffffffffffffffffffffffff1673ffffffffffffffffffffffffffffffffffffffff168152602001908152602001600020600084815260200190815260200160002054905080600660008773ffffffffffffffffffffffffffffffffffffffff1673ffffffffffffffffffffffffffffffffffffffff168152602001908152602001600020600084815260200190815260200160002081905550816007600083815260200190815260200160002081905550505b6007600084815260200190815260200160002060009055600660008573ffffffffffffffffffffffffffffffffffffffff1673ffffffffffffffffffffffffffffffffffffffff16815260200190815260200160002060008381526020019081526020016000206000905550505050565b600060016008805490506123f391906139db565b9050600060096000848152602001908152602001600020549050600060088381548110612423576124226132f2565b5b906000526020600020015490508060088381548110612445576124446132f2565b5b90600052602060002001819055508160096000838152602001908152602001600020819055506009600085815260200190815260200160002060009055600880548061249457612493613b76565b5b6001900381819060005260206000200160009055905550505050565b60006124bb83610d8c565b905081600660008573ffffffffffffffffffffffffffffffffffffffff1673ffffffffffffffffffffffffffffffffffffffff168152602001908152602001600020600083815260200190815260200160002081905550806007600084815260200190815260200160002081905550505050565b6000808273ffffffffffffffffffffffffffffffffffffffff163b119050919050565b6000604051905090565b600080fd5b600080fd5b60007fffffffff0000000000000000000000000000000000000000000000000000000082169050919050565b61259b81612566565b81146125a657600080fd5b50565b6000813590506125b881612592565b92915050565b6000602082840312156125d4576125d361255c565b5b60006125e2848285016125a9565b91505092915050565b60008115159050919050565b612600816125eb565b82525050565b600060208201905061261b60008301846125f7565b92915050565b600081519050919050565b600082825260208201905092915050565b60005b8381101561265b578082015181840152602081019050612640565b60008484015250505050565b6000601f19601f8301169050919050565b600061268382612621565b61268d818561262c565b935061269d81856020860161263d565b6126a681612667565b840191505092915050565b600060208201905081810360008301526126cb8184612678565b905092915050565b6000819050919050565b6126e6816126d3565b81146126f157600080fd5b50565b600081359050612703816126dd565b92915050565b60006020828403121561271f5761271e61255c565b5b600061272d848285016126f4565b91505092915050565b600073ffffffffffffffffffffffffffffffffffffffff82169050919050565b600061276182612736565b9050919050565b61277181612756565b82525050565b600060208201905061278c6000830184612768565b92915050565b61279b81612756565b81146127a657600080fd5b50565b6000813590506127b881612792565b92915050565b600080604083850312156127d5576127d461255c565b5b60006127e3858286016127a9565b92505060206127f4858286016126f4565b9150509250929050565b612807816126d3565b82525050565b600060208201905061282260008301846127fe565b92915050565b6000806000606084860312156128415761284061255c565b5b600061284f868287016127a9565b9350506020612860868287016127a9565b9250506040612871868287016126f4565b9150509250925092565b6000602082840312156128915761289061255c565b5b600061289f848285016127a9565b91505092915050565b600080fd5b600080fd5b7f4e487b7100000000000000000000000000000000000000000000000000000000600052604160045260246000fd5b6128ea82612667565b810181811067ffffffffffffffff82111715612909576129086128b2565b5b80604052505050565b600061291c612552565b905061292882826128e1565b919050565b600067ffffffffffffffff821115612948576129476128b2565b5b61295182612667565b9050602081019050919050565b82818337600083830152505050565b600061298061297b8461292d565b612912565b90508281526020810184848401111561299c5761299b6128ad565b5b6129a784828561295e565b509392505050565b600082601f8301126129c4576129c36128a8565b5b81356129d484826020860161296d565b91505092915050565b6000602082840312156129f3576129f261255c565b5b600082013567ffffffffffffffff811115612a1157612a10612561565b5b612a1d848285016129af565b91505092915050565b612a2f816125eb565b8114612a3a57600080fd5b50565b600081359050612a4c81612a26565b92915050565b60008060408385031215612a6957612a6861255c565b5b6000612a77858286016127a9565b9250506020612a8885828601612a3d565b9150509250929050565b600067ffffffffffffffff821115612aad57612aac6128b2565b5b612ab682612667565b9050602081019050919050565b6000612ad6612ad184612a92565b612912565b905082815260208101848484011115612af257612af16128ad565b5b612afd84828561295e565b509392505050565b600082601f830112612b1a57612b196128a8565b5b8135612b2a848260208601612ac3565b91505092915050565b60008060008060808587031215612b4d57612b4c61255c565b5b6000612b5b878288016127a9565b9450506020612b6c878288016127a9565b9350506040612b7d878288016126f4565b925050606085013567ffffffffffffffff811115612b9e57612b9d612561565b5b612baa87828801612b05565b91505092959194509250565b60008060408385031215612bcd57612bcc61255c565b5b6000612bdb858286016127a9565b9250506020612bec858286016127a9565b9150509250929050565b7f4e487b7100000000000000000000000000000000000000000000000000000000600052602260045260246000fd5b60006002820490506001821680612c3d57607f821691505b602082108103612c5057612c4f612bf6565b5b50919050565b7f4b495031373a20617070726f76656420717565727920666f72206e6f6e65786960008201527f7374656e7420746f6b656e000000000000000000000000000000000000000000602082015250565b6000612cb2602b8361262c565b9150612cbd82612c56565b604082019050919050565b60006020820190508181036000830152612ce181612ca5565b9050919050565b7f4b495031373a20617070726f76616c20746f2063757272656e74206f776e6572600082015250565b6000612d1e60208361262c565b9150612d2982612ce8565b602082019050919050565b60006020820190508181036000830152612d4d81612d11565b9050919050565b7f4b495031373a20617070726f76652063616c6c6572206973206e6f74206f776e60008201527f6572206e6f7220617070726f76656420666f7220616c6c000000000000000000602082015250565b6000612db060378361262c565b9150612dbb82612d54565b604082019050919050565b60006020820190508181036000830152612ddf81612da3565b9050919050565b7f4b495031373a207472616e736665722063616c6c6572206973206e6f74206f7760008201527f6e6572206e6f7220617070726f76656400000000000000000000000000000000602082015250565b6000612e4260308361262c565b9150612e4d82612de6565b604082019050919050565b60006020820190508181036000830152612e7181612e35565b9050919050565b7f4b49503137456e756d657261626c653a206f776e657220696e646578206f757460008201527f206f6620626f756e647300000000000000000000000000000000000000000000602082015250565b6000612ed4602a8361262c565b9150612edf82612e78565b604082019050919050565b60006020820190508181036000830152612f0381612ec7565b9050919050565b7f57616e6e614b495031373a206e6f74206d696e74657200000000000000000000600082015250565b6000612f4060168361262c565b9150612f4b82612f0a565b602082019050919050565b60006020820190508181036000830152612f6f81612f33565b9050919050565b7f4f776e61626c653a2063616c6c6572206973206e6f7420746865206f776e6572600082015250565b6000612fac60208361262c565b9150612fb782612f76565b602082019050919050565b60006020820190508181036000830152612fdb81612f9f565b9050919050565b60008190508160005260206000209050919050565b60006020601f8301049050919050565b600082821b905092915050565b6000600883026130447fffffffffffffffffffffffffffffffffffffffffffffffffffffffffffffffff82613007565b61304e8683613007565b95508019841693508086168417925050509392505050565b6000819050919050565b600061308b613086613081846126d3565b613066565b6126d3565b9050919050565b6000819050919050565b6130a583613070565b6130b96130b182613092565b848454613014565b825550505050565b600090565b6130ce6130c1565b6130d981848461309c565b505050565b5b818110156130fd576130f26000826130c6565b6001810190506130df565b5050565b601f8211156131425761311381612fe2565b61311c84612ff7565b8101602085101561312b578190505b61313f61313785612ff7565b8301826130de565b50505b505050565b600082821c905092915050565b600061316560001984600802613147565b1980831691505092915050565b600061317e8383613154565b9150826002028217905092915050565b61319782612621565b67ffffffffffffffff8111156131b0576131af6128b2565b5b6131ba8254612c25565b6131c5828285613101565b600060209050601f8311600181146131f857600084156131e6578287015190505b6131f08582613172565b865550613258565b601f19841661320686612fe2565b60005b8281101561322e57848901518255600182019150602085019450602081019050613209565b8683101561324b5784890151613247601f891682613154565b8355505b6001600288020188555050505b505050505050565b7f4b49503137456e756d657261626c653a20676c6f62616c20696e646578206f7560008201527f74206f6620626f756e6473000000000000000000000000000000000000000000602082015250565b60006132bc602b8361262c565b91506132c782613260565b604082019050919050565b600060208201905081810360008301526132eb816132af565b9050919050565b7f4e487b7100000000000000000000000000000000000000000000000000000000600052603260045260246000fd5b7f4b495031373a206f776e657220717565727920666f72206e6f6e65786973746560008201527f6e7420746f6b656e000000000000000000000000000000000000000000000000602082015250565b600061337d60288361262c565b915061338882613321565b604082019050919050565b600060208201905081810360008301526133ac81613370565b9050919050565b7f4b495031373a2061646472657373207a65726f206973206e6f7420612076616c60008201527f6964206f776e6572000000000000000000000000000000000000000000000000602082015250565b600061340f60288361262c565b915061341a826133b3565b604082019050919050565b6000602082019050818103600083015261343e81613402565b9050919050565b7f4b495031374d657461646174613a2055524920717565727920666f72206e6f6e60008201527f6578697374656e7420746f6b656e000000000000000000000000000000000000602082015250565b60006134a1602e8361262c565b91506134ac82613445565b604082019050919050565b600060208201905081810360008301526134d081613494565b9050919050565b600081905092915050565b60006134ed82612621565b6134f781856134d7565b935061350781856020860161263d565b80840191505092915050565b600061351f82866134e2565b915061352b82856134e2565b915061353782846134e2565b9150819050949350505050565b7f4f776e61626c653a206e6577206f776e657220697320746865207a65726f206160008201527f6464726573730000000000000000000000000000000000000000000000000000602082015250565b60006135a060268361262c565b91506135ab82613544565b604082019050919050565b600060208201905081810360008301526135cf81613593565b9050919050565b7f4b495031373a206f70657261746f7220717565727920666f72206e6f6e65786960008201527f7374656e7420746f6b656e000000000000000000000000000000000000000000602082015250565b6000613632602b8361262c565b915061363d826135d6565b604082019050919050565b6000602082019050818103600083015261366181613625565b9050919050565b7f63616e6e6f74207472616e736665720000000000000000000000000000000000600082015250565b600061369e600f8361262c565b91506136a982613668565b602082019050919050565b600060208201905081810360008301526136cd81613691565b9050919050565b7f4b495031373a206d696e7420746f20746865207a65726f206164647265737300600082015250565b600061370a601f8361262c565b9150613715826136d4565b602082019050919050565b60006020820190508181036000830152613739816136fd565b9050919050565b7f4b495031373a20746f6b656e20616c7265616479206d696e7465640000000000600082015250565b6000613776601b8361262c565b915061378182613740565b602082019050919050565b600060208201905081810360008301526137a581613769565b9050919050565b7f4e487b7100000000000000000000000000000000000000000000000000000000600052601160045260246000fd5b60006137e6826126d3565b91506137f1836126d3565b9250828201905080821115613809576138086137ac565b5b92915050565b7f4b495031373a20617070726f766520746f2063616c6c65720000000000000000600082015250565b600061384560188361262c565b91506138508261380f565b602082019050919050565b6000602082019050818103600083015261387481613838565b9050919050565b7f4b495031373a207472616e7366657220746f206e6f6e20494b4950313752656360008201527f65697665722f49455243373231526563656976657220696d706c656d656e746560208201527f7200000000000000000000000000000000000000000000000000000000000000604082015250565b60006138fd60418361262c565b91506139088261387b565b606082019050919050565b6000602082019050818103600083015261392c816138f0565b9050919050565b600061393e826126d3565b91507fffffffffffffffffffffffffffffffffffffffffffffffffffffffffffffffff82036139705761396f6137ac565b5b600182019050919050565b7f4e487b7100000000000000000000000000000000000000000000000000000000600052601260045260246000fd5b60006139b5826126d3565b91506139c0836126d3565b9250826139d0576139cf61397b565b5b828204905092915050565b60006139e6826126d3565b91506139f1836126d3565b9250828203905081811115613a0957613a086137ac565b5b92915050565b6000613a1a826126d3565b9150613a25836126d3565b9250828202613a33816126d3565b91508282048414831517613a4a57613a496137ac565b5b5092915050565b600060ff82169050919050565b6000613a6982613a51565b9150613a7483613a51565b9250828201905060ff811115613a8d57613a8c6137ac565b5b92915050565b600081519050919050565b600082825260208201905092915050565b6000613aba82613a93565b613ac48185613a9e565b9350613ad481856020860161263d565b613add81612667565b840191505092915050565b6000608082019050613afd6000830187612768565b613b0a6020830186612768565b613b1760408301856127fe565b8181036060830152613b298184613aaf565b905095945050505050565b600081519050613b4381612592565b92915050565b600060208284031215613b5f57613b5e61255c565b5b6000613b6d84828501613b34565b91505092915050565b7f4e487b7100000000000000000000000000000000000000000000000000000000600052603160045260246000fdfea26469706673582212205079f545118d3ec7fb010ba26a787b4e88f46b9c62925d155976eb48c284588b64736f6c6343000811003368747470733a2f2f77616e6e6170726f6a6563742e73332e61702d6e6f727468656173742d322e616d617a6f6e6177732e636f6d2f73706f6e736f722f6d6574612f",
  "linkReferences": {},
  "deployedLinkReferences": {}
}