{
  "_format": "hh-sol-artifact-1",
  "contractName": "WannaFactory",
  "sourceName": "contracts/WannaFactory.sol",
  "abi": [
    {
      "inputs": [
        {
          "internalType": "contract WannaKIP17",
          "name": "_nft",
          "type": "address"
        }
      ],
      "stateMutability": "nonpayable",
      "type": "constructor"
    },
    {
      "anonymous": false,
      "inputs": [
        {
          "indexed": false,
          "internalType": "address",
          "name": "",
          "type": "address"
        },
        {
          "indexed": false,
          "internalType": "uint256",
          "name": "",
          "type": "uint256"
        }
      ],
      "name": "FeeReceived",
      "type": "event"
    },
    {
      "anonymous": false,
      "inputs": [
        {
          "indexed": true,
          "internalType": "address",
          "name": "previousOwner",
          "type": "address"
        },
        {
          "indexed": true,
          "internalType": "address",
          "name": "newOwner",
          "type": "address"
        }
      ],
      "name": "OwnershipTransferred",
      "type": "event"
    },
    {
      "anonymous": false,
      "inputs": [
        {
          "indexed": true,
          "internalType": "address payable",
          "name": "launcher",
          "type": "address"
        },
        {
          "indexed": false,
          "internalType": "address",
          "name": "project",
          "type": "address"
        },
        {
          "indexed": false,
          "internalType": "string",
          "name": "title",
          "type": "string"
        },
        {
          "indexed": false,
          "internalType": "uint256",
          "name": "id",
          "type": "uint256"
        }
      ],
      "name": "ProjectCreated",
      "type": "event"
    },
    {
      "inputs": [],
      "name": "allProjectLength",
      "outputs": [
        {
          "internalType": "uint256",
          "name": "",
          "type": "uint256"
        }
      ],
      "stateMutability": "view",
      "type": "function"
    },
    {
      "inputs": [
        {
          "internalType": "uint256",
          "name": "",
          "type": "uint256"
        }
      ],
      "name": "allProjects",
      "outputs": [
        {
          "internalType": "address payable",
          "name": "",
          "type": "address"
        }
      ],
      "stateMutability": "view",
      "type": "function"
    },
    {
      "inputs": [
        {
          "internalType": "string",
          "name": "_title",
          "type": "string"
        },
        {
          "internalType": "uint256[]",
          "name": "_dues",
          "type": "uint256[]"
        },
        {
          "internalType": "uint256[]",
          "name": "_amounts",
          "type": "uint256[]"
        }
      ],
      "name": "createProject",
      "outputs": [
        {
          "internalType": "address",
          "name": "",
          "type": "address"
        }
      ],
      "stateMutability": "nonpayable",
      "type": "function"
    },
    {
      "inputs": [
        {
          "internalType": "address",
          "name": "project_address",
          "type": "address"
        }
      ],
      "name": "getProjectInfo",
      "outputs": [
        {
          "components": [
            {
              "internalType": "uint256",
              "name": "id",
              "type": "uint256"
            },
            {
              "internalType": "address payable",
              "name": "launcher",
              "type": "address"
            },
            {
              "internalType": "uint256",
              "name": "started",
              "type": "uint256"
            },
            {
              "internalType": "string",
              "name": "title",
              "type": "string"
            },
            {
              "internalType": "uint256[]",
              "name": "dues",
              "type": "uint256[]"
            },
            {
              "internalType": "uint256[]",
              "name": "amounts",
              "type": "uint256[]"
            }
          ],
          "internalType": "struct WannaFactory.ProjectInfo",
          "name": "",
          "type": "tuple"
        }
      ],
      "stateMutability": "view",
      "type": "function"
    },
    {
      "inputs": [],
      "name": "nft",
      "outputs": [
        {
          "internalType": "contract WannaKIP17",
          "name": "",
          "type": "address"
        }
      ],
      "stateMutability": "view",
      "type": "function"
    },
    {
      "inputs": [],
      "name": "owner",
      "outputs": [
        {
          "internalType": "address",
          "name": "",
          "type": "address"
        }
      ],
      "stateMutability": "view",
      "type": "function"
    },
    {
      "inputs": [],
      "name": "renounceOwnership",
      "outputs": [],
      "stateMutability": "nonpayable",
      "type": "function"
    },
    {
      "inputs": [
        {
          "internalType": "address",
          "name": "newOwner",
          "type": "address"
        }
      ],
      "name": "transferOwnership",
      "outputs": [],
      "stateMutability": "nonpayable",
      "type": "function"
    },
    {
      "inputs": [],
      "name": "withdraw",
      "outputs": [],
      "stateMutability": "nonpayable",
      "type": "function"
    },
    {
      "stateMutability": "payable",
      "type": "receive"
    }
  ],
  "bytecode": "0x60806040523480156200001157600080fd5b506040516200522a3803806200522a8339818101604052810190620000379190620001e9565b620000576200004b6200009f60201b60201c565b620000a760201b60201c565b80600160006101000a81548173ffffffffffffffffffffffffffffffffffffffff021916908373ffffffffffffffffffffffffffffffffffffffff160217905550506200021b565b600033905090565b60008060009054906101000a900473ffffffffffffffffffffffffffffffffffffffff169050816000806101000a81548173ffffffffffffffffffffffffffffffffffffffff021916908373ffffffffffffffffffffffffffffffffffffffff1602179055508173ffffffffffffffffffffffffffffffffffffffff168173ffffffffffffffffffffffffffffffffffffffff167f8be0079c531659141344cd1fd0a4f28419497f9722a3daafe3b4186f6b6457e060405160405180910390a35050565b600080fd5b600073ffffffffffffffffffffffffffffffffffffffff82169050919050565b60006200019d8262000170565b9050919050565b6000620001b18262000190565b9050919050565b620001c381620001a4565b8114620001cf57600080fd5b50565b600081519050620001e381620001b8565b92915050565b6000602082840312156200020257620002016200016b565b5b60006200021284828501620001d2565b91505092915050565b614fff806200022b6000396000f3fe60806040526004361061008a5760003560e01c8063715018a611610059578063715018a61461018b57806388c8d107146101a25780638da5cb5b146101df578063cf4fa0dc1461020a578063f2fde38b14610235576100ca565b80633ccfd60b146100cf57806347ccca02146100e657806347ee45b91461011157806353b3194c1461014e576100ca565b366100ca577fbb527541f6cc244ae00ab689f8c23d072a30a3b4176021df62ea1c2bac8aa22633346040516100c0929190610cd6565b60405180910390a1005b600080fd5b3480156100db57600080fd5b506100e461025e565b005b3480156100f257600080fd5b506100fb610329565b6040516101089190610d5e565b60405180910390f35b34801561011d57600080fd5b5061013860048036038101906101339190610db9565b61034f565b6040516101459190610fec565b60405180910390f35b34801561015a57600080fd5b506101756004803603810190610170919061103a565b610554565b6040516101829190611076565b60405180910390f35b34801561019757600080fd5b506101a0610593565b005b3480156101ae57600080fd5b506101c960048036038101906101c4919061128e565b61061b565b6040516101d69190611335565b60405180910390f35b3480156101eb57600080fd5b506101f46109c0565b6040516102019190611335565b60405180910390f35b34801561021657600080fd5b5061021f6109e9565b60405161022c9190611350565b60405180910390f35b34801561024157600080fd5b5061025c60048036038101906102579190610db9565b6109f6565b005b610266610aed565b73ffffffffffffffffffffffffffffffffffffffff166102846109c0565b73ffffffffffffffffffffffffffffffffffffffff16146102da576040517f08c379a00000000000000000000000000000000000000000000000000000000081526004016102d1906113c8565b60405180910390fd5b60004790503373ffffffffffffffffffffffffffffffffffffffff166108fc829081150290604051600060405180830381858888f19350505050158015610325573d6000803e3d6000fd5b5050565b600160009054906101000a900473ffffffffffffffffffffffffffffffffffffffff1681565b610357610bb9565b600360008373ffffffffffffffffffffffffffffffffffffffff1673ffffffffffffffffffffffffffffffffffffffff1681526020019081526020016000206040518060c0016040529081600082015481526020016001820160009054906101000a900473ffffffffffffffffffffffffffffffffffffffff1673ffffffffffffffffffffffffffffffffffffffff1673ffffffffffffffffffffffffffffffffffffffff1681526020016002820154815260200160038201805461041b90611417565b80601f016020809104026020016040519081016040528092919081815260200182805461044790611417565b80156104945780601f1061046957610100808354040283529160200191610494565b820191906000526020600020905b81548152906001019060200180831161047757829003601f168201915b50505050508152602001600482018054806020026020016040519081016040528092919081815260200182805480156104ec57602002820191906000526020600020905b8154815260200190600101908083116104d8575b505050505081526020016005820180548060200260200160405190810160405280929190818152602001828054801561054457602002820191906000526020600020905b815481526020019060010190808311610530575b5050505050815250509050919050565b6002818154811061056457600080fd5b906000526020600020016000915054906101000a900473ffffffffffffffffffffffffffffffffffffffff1681565b61059b610aed565b73ffffffffffffffffffffffffffffffffffffffff166105b96109c0565b73ffffffffffffffffffffffffffffffffffffffff161461060f576040517f08c379a0000000000000000000000000000000000000000000000000000000008152600401610606906113c8565b60405180910390fd5b6106196000610af5565b565b60008151835114610661576040517f08c379a0000000000000000000000000000000000000000000000000000000008152600401610658906114ba565b60405180910390fd5b6000839050428160008151811061067b5761067a6114da565b5b6020026020010181815250506000600280549050905060008160001b90506000816040516106a890610c05565b8190604051809103906000f59050801580156106c8573d6000803e3d6000fd5b5090508073ffffffffffffffffffffffffffffffffffffffff1663060b15468985338b8b6040518663ffffffff1660e01b815260040161070c9594939291906115b1565b600060405180830381600087803b15801561072657600080fd5b505af115801561073a573d6000803e3d6000fd5b50505050600160009054906101000a900473ffffffffffffffffffffffffffffffffffffffff1673ffffffffffffffffffffffffffffffffffffffff166340c10f1933856040518363ffffffff1660e01b815260040161079b929190610cd6565b600060405180830381600087803b1580156107b557600080fd5b505af11580156107c9573d6000803e3d6000fd5b505050506040518060c001604052808481526020013373ffffffffffffffffffffffffffffffffffffffff16815260200142815260200189815260200188815260200187815250600360008373ffffffffffffffffffffffffffffffffffffffff1673ffffffffffffffffffffffffffffffffffffffff1681526020019081526020016000206000820151816000015560208201518160010160006101000a81548173ffffffffffffffffffffffffffffffffffffffff021916908373ffffffffffffffffffffffffffffffffffffffff1602179055506040820151816002015560608201518160030190816108bf91906117bb565b5060808201518160040190805190602001906108dc929190610c12565b5060a08201518160050190805190602001906108f9929190610c12565b509050506002819080600181540180825580915050600190039060005260206000200160009091909190916101000a81548173ffffffffffffffffffffffffffffffffffffffff021916908373ffffffffffffffffffffffffffffffffffffffff1602179055503373ffffffffffffffffffffffffffffffffffffffff167fa5e5114bddd29038323201aff93e58f1457b01d0cdb261d329cc1f21f0fca69f828a866040516109aa939291906118ae565b60405180910390a2809450505050509392505050565b60008060009054906101000a900473ffffffffffffffffffffffffffffffffffffffff16905090565b6000600280549050905090565b6109fe610aed565b73ffffffffffffffffffffffffffffffffffffffff16610a1c6109c0565b73ffffffffffffffffffffffffffffffffffffffff1614610a72576040517f08c379a0000000000000000000000000000000000000000000000000000000008152600401610a69906113c8565b60405180910390fd5b600073ffffffffffffffffffffffffffffffffffffffff168173ffffffffffffffffffffffffffffffffffffffff1603610ae1576040517f08c379a0000000000000000000000000000000000000000000000000000000008152600401610ad89061195e565b60405180910390fd5b610aea81610af5565b50565b600033905090565b60008060009054906101000a900473ffffffffffffffffffffffffffffffffffffffff169050816000806101000a81548173ffffffffffffffffffffffffffffffffffffffff021916908373ffffffffffffffffffffffffffffffffffffffff1602179055508173ffffffffffffffffffffffffffffffffffffffff168173ffffffffffffffffffffffffffffffffffffffff167f8be0079c531659141344cd1fd0a4f28419497f9722a3daafe3b4186f6b6457e060405160405180910390a35050565b6040518060c0016040528060008152602001600073ffffffffffffffffffffffffffffffffffffffff168152602001600081526020016060815260200160608152602001606081525090565b61364b8061197f83390190565b828054828255906000526020600020908101928215610c4e579160200282015b82811115610c4d578251825591602001919060010190610c32565b5b509050610c5b9190610c5f565b5090565b5b80821115610c78576000816000905550600101610c60565b5090565b600073ffffffffffffffffffffffffffffffffffffffff82169050919050565b6000610ca782610c7c565b9050919050565b610cb781610c9c565b82525050565b6000819050919050565b610cd081610cbd565b82525050565b6000604082019050610ceb6000830185610cae565b610cf86020830184610cc7565b9392505050565b6000819050919050565b6000610d24610d1f610d1a84610c7c565b610cff565b610c7c565b9050919050565b6000610d3682610d09565b9050919050565b6000610d4882610d2b565b9050919050565b610d5881610d3d565b82525050565b6000602082019050610d736000830184610d4f565b92915050565b6000604051905090565b600080fd5b600080fd5b610d9681610c9c565b8114610da157600080fd5b50565b600081359050610db381610d8d565b92915050565b600060208284031215610dcf57610dce610d83565b5b6000610ddd84828501610da4565b91505092915050565b610def81610cbd565b82525050565b6000610e0082610c7c565b9050919050565b610e1081610df5565b82525050565b600081519050919050565b600082825260208201905092915050565b60005b83811015610e50578082015181840152602081019050610e35565b60008484015250505050565b6000601f19601f8301169050919050565b6000610e7882610e16565b610e828185610e21565b9350610e92818560208601610e32565b610e9b81610e5c565b840191505092915050565b600081519050919050565b600082825260208201905092915050565b6000819050602082019050919050565b6000610ede8383610de6565b60208301905092915050565b6000602082019050919050565b6000610f0282610ea6565b610f0c8185610eb1565b9350610f1783610ec2565b8060005b83811015610f48578151610f2f8882610ed2565b9750610f3a83610eea565b925050600181019050610f1b565b5085935050505092915050565b600060c083016000830151610f6d6000860182610de6565b506020830151610f806020860182610e07565b506040830151610f936040860182610de6565b5060608301518482036060860152610fab8282610e6d565b91505060808301518482036080860152610fc58282610ef7565b91505060a083015184820360a0860152610fdf8282610ef7565b9150508091505092915050565b600060208201905081810360008301526110068184610f55565b905092915050565b61101781610cbd565b811461102257600080fd5b50565b6000813590506110348161100e565b92915050565b6000602082840312156110505761104f610d83565b5b600061105e84828501611025565b91505092915050565b61107081610df5565b82525050565b600060208201905061108b6000830184611067565b92915050565b600080fd5b600080fd5b7f4e487b7100000000000000000000000000000000000000000000000000000000600052604160045260246000fd5b6110d382610e5c565b810181811067ffffffffffffffff821117156110f2576110f161109b565b5b80604052505050565b6000611105610d79565b905061111182826110ca565b919050565b600067ffffffffffffffff8211156111315761113061109b565b5b61113a82610e5c565b9050602081019050919050565b82818337600083830152505050565b600061116961116484611116565b6110fb565b90508281526020810184848401111561118557611184611096565b5b611190848285611147565b509392505050565b600082601f8301126111ad576111ac611091565b5b81356111bd848260208601611156565b91505092915050565b600067ffffffffffffffff8211156111e1576111e061109b565b5b602082029050602081019050919050565b600080fd5b600061120a611205846111c6565b6110fb565b9050808382526020820190506020840283018581111561122d5761122c6111f2565b5b835b8181101561125657806112428882611025565b84526020840193505060208101905061122f565b5050509392505050565b600082601f83011261127557611274611091565b5b81356112858482602086016111f7565b91505092915050565b6000806000606084860312156112a7576112a6610d83565b5b600084013567ffffffffffffffff8111156112c5576112c4610d88565b5b6112d186828701611198565b935050602084013567ffffffffffffffff8111156112f2576112f1610d88565b5b6112fe86828701611260565b925050604084013567ffffffffffffffff81111561131f5761131e610d88565b5b61132b86828701611260565b9150509250925092565b600060208201905061134a6000830184610cae565b92915050565b60006020820190506113656000830184610cc7565b92915050565b600082825260208201905092915050565b7f4f776e61626c653a2063616c6c6572206973206e6f7420746865206f776e6572600082015250565b60006113b260208361136b565b91506113bd8261137c565b602082019050919050565b600060208201905081810360008301526113e1816113a5565b9050919050565b7f4e487b7100000000000000000000000000000000000000000000000000000000600052602260045260246000fd5b6000600282049050600182168061142f57607f821691505b602082108103611442576114416113e8565b5b50919050565b7f57616e6e61466163746f72793a206475657320616e6420616d6f756e7473206e60008201527f6f74206d6174636865642e000000000000000000000000000000000000000000602082015250565b60006114a4602b8361136b565b91506114af82611448565b604082019050919050565b600060208201905081810360008301526114d381611497565b9050919050565b7f4e487b7100000000000000000000000000000000000000000000000000000000600052603260045260246000fd5b600061151482610e16565b61151e818561136b565b935061152e818560208601610e32565b61153781610e5c565b840191505092915050565b600082825260208201905092915050565b600061155e82610ea6565b6115688185611542565b935061157383610ec2565b8060005b838110156115a457815161158b8882610ed2565b975061159683610eea565b925050600181019050611577565b5085935050505092915050565b600060a08201905081810360008301526115cb8188611509565b90506115da6020830187610cc7565b6115e76040830186611067565b81810360608301526115f98185611553565b9050818103608083015261160d8184611553565b90509695505050505050565b60008190508160005260206000209050919050565b60006020601f8301049050919050565b600082821b905092915050565b60006008830261167b7fffffffffffffffffffffffffffffffffffffffffffffffffffffffffffffffff8261163e565b611685868361163e565b95508019841693508086168417925050509392505050565b60006116b86116b36116ae84610cbd565b610cff565b610cbd565b9050919050565b6000819050919050565b6116d28361169d565b6116e66116de826116bf565b84845461164b565b825550505050565b600090565b6116fb6116ee565b6117068184846116c9565b505050565b5b8181101561172a5761171f6000826116f3565b60018101905061170c565b5050565b601f82111561176f5761174081611619565b6117498461162e565b81016020851015611758578190505b61176c6117648561162e565b83018261170b565b50505b505050565b600082821c905092915050565b600061179260001984600802611774565b1980831691505092915050565b60006117ab8383611781565b9150826002028217905092915050565b6117c482610e16565b67ffffffffffffffff8111156117dd576117dc61109b565b5b6117e78254611417565b6117f282828561172e565b600060209050601f8311600181146118255760008415611813578287015190505b61181d858261179f565b865550611885565b601f19841661183386611619565b60005b8281101561185b57848901518255600182019150602085019450602081019050611836565b868310156118785784890151611874601f891682611781565b8355505b6001600288020188555050505b505050505050565b600061189882610d2b565b9050919050565b6118a88161188d565b82525050565b60006060820190506118c3600083018661189f565b81810360208301526118d58185611509565b90506118e46040830184610cc7565b949350505050565b7f4f776e61626c653a206e6577206f776e657220697320746865207a65726f206160008201527f6464726573730000000000000000000000000000000000000000000000000000602082015250565b600061194860268361136b565b9150611953826118ec565b604082019050919050565b600060208201905081810360008301526119778161193b565b905091905056fe60806040526001600f60006101000a81548160ff021916908360ff16021790555034801561002c57600080fd5b5033600360006101000a81548173ffffffffffffffffffffffffffffffffffffffff021916908373ffffffffffffffffffffffffffffffffffffffff1602179055506135ce8061007d6000396000f3fe6080604052600436106101d15760003560e01c80636a627842116100f7578063af640d0f11610095578063c45a015511610064578063c45a015514610702578063dbe7e3bd1461072d578063dd62ed3e1461076a578063ddd5e1b2146107a7576101d8565b8063af640d0f14610646578063b48c118014610671578063bceb514d146106ae578063c040e6b8146106d7576101d8565b806392d24b78116100d157806392d24b781461057657806395d89b41146105a15780639f5acac5146105cc578063a9059cbb14610609576101d8565b80636a627842146104cc57806370a08231146104fc57806381c6588414610539576101d8565b80631a3bb7e11161016f578063410085df1161013e578063410085df146103ea57806345f0a44f146104275780634a79d50c146104645780636137ba7d1461048f576101d8565b80631a3bb7e11461031a5780631f2698ab1461035757806323b872dd14610382578063313ce567146103bf576101d8565b80630c6ffc29116101ab5780630c6ffc291461026e57806316eebd1e1461029957806318160ddd146102c457806319f41a40146102ef576101d8565b8063060b1546146101dd57806306fdde0314610206578063095ea7b314610231576101d8565b366101d857005b600080fd5b3480156101e957600080fd5b5061020460048036038101906101ff919061249a565b6107e4565b005b34801561021257600080fd5b5061021b6109ac565b60405161022891906125e8565b60405180910390f35b34801561023d57600080fd5b5061025860048036038101906102539190612648565b6109e5565b60405161026591906126a3565b60405180910390f35b34801561027a57600080fd5b506102836109fc565b60405161029091906126cd565b60405180910390f35b3480156102a557600080fd5b506102ae610a5a565b6040516102bb91906126f7565b60405180910390f35b3480156102d057600080fd5b506102d9610a80565b6040516102e691906126cd565b60405180910390f35b3480156102fb57600080fd5b50610304610a86565b604051610311919061272e565b60405180910390f35b34801561032657600080fd5b50610341600480360381019061033c9190612749565b610b35565b60405161034e91906126cd565b60405180910390f35b34801561036357600080fd5b5061036c610b4d565b60405161037991906126cd565b60405180910390f35b34801561038e57600080fd5b506103a960048036038101906103a49190612776565b610b53565b6040516103b691906126a3565b60405180910390f35b3480156103cb57600080fd5b506103d4610d1e565b6040516103e1919061272e565b60405180910390f35b3480156103f657600080fd5b50610411600480360381019061040c91906127c9565b610d23565b60405161041e91906126cd565b60405180910390f35b34801561043357600080fd5b5061044e60048036038101906104499190612749565b610fa1565b60405161045b91906126cd565b60405180910390f35b34801561047057600080fd5b50610479610fc5565b60405161048691906125e8565b60405180910390f35b34801561049b57600080fd5b506104b660048036038101906104b19190612809565b611053565b6040516104c391906126a3565b60405180910390f35b6104e660048036038101906104e19190612849565b611082565b6040516104f391906126cd565b60405180910390f35b34801561050857600080fd5b50610523600480360381019061051e9190612849565b61120f565b60405161053091906126cd565b60405180910390f35b34801561054557600080fd5b50610560600480360381019061055b9190612749565b611227565b60405161056d919061272e565b60405180910390f35b34801561058257600080fd5b5061058b61129c565b60405161059891906126a3565b60405180910390f35b3480156105ad57600080fd5b506105b66112af565b6040516105c391906125e8565b60405180910390f35b3480156105d857600080fd5b506105f360048036038101906105ee9190612749565b6112e8565b60405161060091906126cd565b60405180910390f35b34801561061557600080fd5b50610630600480360381019061062b9190612648565b61130c565b60405161063d91906126a3565b60405180910390f35b34801561065257600080fd5b5061065b611323565b60405161066891906126cd565b60405180910390f35b34801561067d57600080fd5b5061069860048036038101906106939190612749565b611329565b6040516106a591906126cd565b60405180910390f35b3480156106ba57600080fd5b506106d560048036038101906106d091906128a2565b611341565b005b3480156106e357600080fd5b506106ec6116da565b6040516106f991906126cd565b60405180910390f35b34801561070e57600080fd5b506107176117da565b60405161072491906128f1565b60405180910390f35b34801561073957600080fd5b50610754600480360381019061074f9190612749565b611800565b60405161076191906126a3565b60405180910390f35b34801561077657600080fd5b50610791600480360381019061078c919061290c565b611820565b60405161079e91906126cd565b60405180910390f35b3480156107b357600080fd5b506107ce60048036038101906107c9919061294c565b611845565b6040516107db91906126cd565b60405180910390f35b600360009054906101000a900473ffffffffffffffffffffffffffffffffffffffff1673ffffffffffffffffffffffffffffffffffffffff163373ffffffffffffffffffffffffffffffffffffffff1614610874576040517f08c379a000000000000000000000000000000000000000000000000000000000815260040161086b906129fe565b60405180910390fd5b60005b82518110156109175761089560018451611c1f90919063ffffffff16565b811461090457826108b0600183611c3590919063ffffffff16565b815181106108c1576108c0612a1e565b5b60200260200101516108f9621275008584815181106108e3576108e2612a1e565b5b6020026020010151611c3590919063ffffffff16565b1061090357600080fd5b5b808061090f90612a7c565b915050610877565b5084600490816109279190612cd0565b508360058190555082600660006101000a81548173ffffffffffffffffffffffffffffffffffffffff021916908373ffffffffffffffffffffffffffffffffffffffff16021790555042600781905550816008908051906020019061098d92919061217a565b5080600990805190602001906109a492919061217a565b505050505050565b6040518060400160405280600d81526020017f57616e6e612070726f6a6563740000000000000000000000000000000000000081525081565b60006109f2338484611c4b565b6001905092915050565b600080600090505b600980549050811015610a5657610a4260098281548110610a2857610a27612a1e565b5b906000526020600020015483611c3590919063ffffffff16565b508080610a4e90612a7c565b915050610a04565b5090565b600660009054906101000a900473ffffffffffffffffffffffffffffffffffffffff1681565b60005481565b600042610aa162093a80600754611c3590919063ffffffff16565b1115610ab05760029050610b32565b426008610abb6116da565b81548110610acc57610acb612a1e565b5b906000526020600020015411158015610b1e5750610b1b6203f4806008610af16116da565b81548110610b0257610b01612a1e565b5b9060005260206000200154611c3590919063ffffffff16565b42105b15610b2c5760019050610b31565b600090505b5b90565b600c6020528060005260406000206000915090505481565b60075481565b60007fffffffffffffffffffffffffffffffffffffffffffffffffffffffffffffffff600260008673ffffffffffffffffffffffffffffffffffffffff1673ffffffffffffffffffffffffffffffffffffffff16815260200190815260200160002060003373ffffffffffffffffffffffffffffffffffffffff1673ffffffffffffffffffffffffffffffffffffffff1681526020019081526020016000205414610d0857610c8782600260008773ffffffffffffffffffffffffffffffffffffffff1673ffffffffffffffffffffffffffffffffffffffff16815260200190815260200160002060003373ffffffffffffffffffffffffffffffffffffffff1673ffffffffffffffffffffffffffffffffffffffff16815260200190815260200160002054611c1f90919063ffffffff16565b600260008673ffffffffffffffffffffffffffffffffffffffff1673ffffffffffffffffffffffffffffffffffffffff16815260200190815260200160002060003373ffffffffffffffffffffffffffffffffffffffff1673ffffffffffffffffffffffffffffffffffffffff168152602001908152602001600020819055505b610d13848484611d36565b600190509392505050565b601281565b60006001600f60009054906101000a900460ff1660ff1614610d7a576040517f08c379a0000000000000000000000000000000000000000000000000000000008152600401610d7190612dee565b60405180910390fd5b6000600f60006101000a81548160ff021916908360ff160217905550600060ff16610da3610a86565b60ff1614610de6576040517f08c379a0000000000000000000000000000000000000000000000000000000008152600401610ddd90612e5a565b60405180910390fd5b600160ff16610dfb610df66116da565b611227565b60ff1614610e3e576040517f08c379a0000000000000000000000000000000000000000000000000000000008152600401610e3590612ec6565b60405180910390fd5b6000610e486116da565b03610e9e57600a60009054906101000a900460ff1615610e9d576040517f08c379a0000000000000000000000000000000000000000000000000000000008152600401610e9490612f32565b60405180910390fd5b5b600080610ea96116da565b90505b600980549050811015610efe57610eea60098281548110610ed057610ecf612a1e565b5b906000526020600020015483611c3590919063ffffffff16565b508080610ef690612a7c565b915050610eac565b50610f2b610f0a6109fc565b610f1d8386611f1a90919063ffffffff16565b611f3090919063ffffffff16565b9150610f378484611f46565b8373ffffffffffffffffffffffffffffffffffffffff166108fc839081150290604051600060405180830381858888f19350505050158015610f7d573d6000803e3d6000fd5b50506001600f60006101000a81548160ff021916908360ff16021790555092915050565b60098181548110610fb157600080fd5b906000526020600020016000915090505481565b60048054610fd290612af3565b80601f0160208091040260200160405190810160405280929190818152602001828054610ffe90612af3565b801561104b5780601f106110205761010080835404028352916020019161104b565b820191906000526020600020905b81548152906001019060200180831161102e57829003601f168201915b505050505081565b600d6020528160005260406000206020528060005260406000206000915091509054906101000a900460ff1681565b60006001600f60009054906101000a900460ff1660ff16146110d9576040517f08c379a00000000000000000000000000000000000000000000000000000000081526004016110d090612dee565b60405180910390fd5b6000600f60006101000a81548160ff021916908360ff160217905550600260ff16611102610a86565b60ff1614611145576040517f08c379a000000000000000000000000000000000000000000000000000000000815260040161113c90612f9e565b60405180910390fd5b61114d6109fc565b61116260005434611c3590919063ffffffff16565b11156111a3576040517f08c379a000000000000000000000000000000000000000000000000000000000815260040161119a9061300a565b60405180910390fd5b6111ab6109fc565b6111c060005434611c3590919063ffffffff16565b036111e1576001600a60006101000a81548160ff0219169083151502179055505b6111eb8234612060565b3490506001600f60006101000a81548160ff021916908360ff160217905550919050565b60016020528060005260406000206000915090505481565b60006112316116da565b8214801561124c5750600160ff16611247610a86565b60ff16145b1561125a5760029050611297565b600c600083815260200190815260200160002054600b60008481526020019081526020016000205411156112915760009050611296565b600190505b5b919050565b600a60009054906101000a900460ff1681565b6040518060400160405280600581526020017f57414e4e4100000000000000000000000000000000000000000000000000000081525081565b600881815481106112f857600080fd5b906000526020600020016000915090505481565b6000611319338484611d36565b6001905092915050565b60055481565b600b6020528060005260406000206000915090505481565b6001600f60009054906101000a900460ff1660ff1614611396576040517f08c379a000000000000000000000000000000000000000000000000000000000815260040161138d90612dee565b60405180910390fd5b6000600f60006101000a81548160ff021916908360ff160217905550600160ff166113bf610a86565b60ff1614611402576040517f08c379a00000000000000000000000000000000000000000000000000000000081526004016113f990613076565b60405180910390fd5b6000600160008473ffffffffffffffffffffffffffffffffffffffff1673ffffffffffffffffffffffffffffffffffffffff1681526020019081526020016000205411611484576040517f08c379a000000000000000000000000000000000000000000000000000000000815260040161147b906130e2565b60405180910390fd5b600060ff168160ff16148061149f5750600160ff168160ff16145b6114de576040517f08c379a00000000000000000000000000000000000000000000000000000000081526004016114d590613174565b60405180910390fd5b600d60006114ea6116da565b815260200190815260200160002060008373ffffffffffffffffffffffffffffffffffffffff1673ffffffffffffffffffffffffffffffffffffffff16815260200190815260200160002060009054906101000a900460ff1615611583576040517f08c379a000000000000000000000000000000000000000000000000000000000815260040161157a906131e0565b60405180910390fd5b600060ff168160ff1603611620576115fd600160008473ffffffffffffffffffffffffffffffffffffffff1673ffffffffffffffffffffffffffffffffffffffff16815260200190815260200160002054600b60006115e06116da565b815260200190815260200160002054611c3590919063ffffffff16565b600b60006116096116da565b8152602001908152602001600020819055506116ba565b600160ff168160ff16036116b95761169a600160008473ffffffffffffffffffffffffffffffffffffffff1673ffffffffffffffffffffffffffffffffffffffff16815260200190815260200160002054600c600061167d6116da565b815260200190815260200160002054611c3590919063ffffffff16565b600c60006116a66116da565b8152602001908152602001600020819055505b5b6001600f60006101000a81548160ff021916908360ff1602179055505050565b600080600090505b6008805490508110156117cd57600c600082815260200190815260200160002054600b600083815260200190815260200160002054101561172657809150506117d7565b61173f6001600880549050611c1f90919063ffffffff16565b810361174e57809150506117d7565b426008828154811061176357611762612a1e565b5b9060005260206000200154111580156117ac5750600861178d600183611c3590919063ffffffff16565b8154811061179e5761179d612a1e565b5b906000526020600020015442105b156117ba57809150506117d7565b80806117c590612a7c565b9150506116e2565b5060088054905090505b90565b600360009054906101000a900473ffffffffffffffffffffffffffffffffffffffff1681565b600e6020528060005260406000206000915054906101000a900460ff1681565b6002602052816000526040600020602052806000526040600020600091509150505481565b60006001600f60009054906101000a900460ff1660ff161461189c576040517f08c379a000000000000000000000000000000000000000000000000000000000815260040161189390612dee565b60405180910390fd5b6000600f60006101000a81548160ff021916908360ff160217905550600660009054906101000a900473ffffffffffffffffffffffffffffffffffffffff1673ffffffffffffffffffffffffffffffffffffffff168273ffffffffffffffffffffffffffffffffffffffff1614611948576040517f08c379a000000000000000000000000000000000000000000000000000000000815260040161193f9061324c565b60405180910390fd5b600e600084815260200190815260200160002060009054906101000a900460ff16156119a9576040517f08c379a00000000000000000000000000000000000000000000000000000000081526004016119a0906132b8565b60405180910390fd5b60008303611a0557600a60009054906101000a900460ff16611a00576040517f08c379a00000000000000000000000000000000000000000000000000000000081526004016119f79061334a565b60405180910390fd5b611a57565b600060ff16611a1384611227565b60ff1614611a56576040517f08c379a0000000000000000000000000000000000000000000000000000000008152600401611a4d906133dc565b60405180910390fd5b5b6000611a8b606460098681548110611a7257611a71612a1e565b5b9060005260206000200154611f3090919063ffffffff16565b9050611abe8160098681548110611aa557611aa4612a1e565b5b9060005260206000200154611c1f90919063ffffffff16565b91508273ffffffffffffffffffffffffffffffffffffffff166108fc611b0b8360098881548110611af257611af1612a1e565b5b9060005260206000200154611c1f90919063ffffffff16565b9081150290604051600060405180830381858888f19350505050158015611b36573d6000803e3d6000fd5b50600360009054906101000a900473ffffffffffffffffffffffffffffffffffffffff1673ffffffffffffffffffffffffffffffffffffffff166108fc611ba48360098881548110611b8b57611b8a612a1e565b5b9060005260206000200154611c1f90919063ffffffff16565b9081150290604051600060405180830381858888f19350505050158015611bcf573d6000803e3d6000fd5b506001600e600086815260200190815260200160002060006101000a81548160ff021916908315150217905550506001600f60006101000a81548160ff021916908360ff16021790555092915050565b60008183611c2d91906133fc565b905092915050565b60008183611c439190613430565b905092915050565b80600260008573ffffffffffffffffffffffffffffffffffffffff1673ffffffffffffffffffffffffffffffffffffffff16815260200190815260200160002060008473ffffffffffffffffffffffffffffffffffffffff1673ffffffffffffffffffffffffffffffffffffffff168152602001908152602001600020819055508173ffffffffffffffffffffffffffffffffffffffff168373ffffffffffffffffffffffffffffffffffffffff167f8c5be1e5ebec7d5bd14f71427d1e84f3dd0314c0f7b2291e5b200ac8c7c3b92583604051611d2991906126cd565b60405180910390a3505050565b600060ff16611d43610a86565b60ff1614611d86576040517f08c379a0000000000000000000000000000000000000000000000000000000008152600401611d7d906134d6565b60405180910390fd5b611dd881600160008673ffffffffffffffffffffffffffffffffffffffff1673ffffffffffffffffffffffffffffffffffffffff16815260200190815260200160002054611c1f90919063ffffffff16565b600160008573ffffffffffffffffffffffffffffffffffffffff1673ffffffffffffffffffffffffffffffffffffffff16815260200190815260200160002081905550611e6d81600160008573ffffffffffffffffffffffffffffffffffffffff1673ffffffffffffffffffffffffffffffffffffffff16815260200190815260200160002054611c3590919063ffffffff16565b600160008473ffffffffffffffffffffffffffffffffffffffff1673ffffffffffffffffffffffffffffffffffffffff168152602001908152602001600020819055508173ffffffffffffffffffffffffffffffffffffffff168373ffffffffffffffffffffffffffffffffffffffff167fddf252ad1be2c89b69c2b068fc378daa952ba7f163c4a11628f55a4df523b3ef83604051611f0d91906126cd565b60405180910390a3505050565b60008183611f2891906134f6565b905092915050565b60008183611f3e9190613567565b905092915050565b611f9881600160008573ffffffffffffffffffffffffffffffffffffffff1673ffffffffffffffffffffffffffffffffffffffff16815260200190815260200160002054611c1f90919063ffffffff16565b600160008473ffffffffffffffffffffffffffffffffffffffff1673ffffffffffffffffffffffffffffffffffffffff16815260200190815260200160002081905550611ff081600054611c1f90919063ffffffff16565b600081905550600073ffffffffffffffffffffffffffffffffffffffff168273ffffffffffffffffffffffffffffffffffffffff167fddf252ad1be2c89b69c2b068fc378daa952ba7f163c4a11628f55a4df523b3ef8360405161205491906126cd565b60405180910390a35050565b61207581600054611c3590919063ffffffff16565b6000819055506120cd81600160008573ffffffffffffffffffffffffffffffffffffffff1673ffffffffffffffffffffffffffffffffffffffff16815260200190815260200160002054611c3590919063ffffffff16565b600160008473ffffffffffffffffffffffffffffffffffffffff1673ffffffffffffffffffffffffffffffffffffffff168152602001908152602001600020819055508173ffffffffffffffffffffffffffffffffffffffff16600073ffffffffffffffffffffffffffffffffffffffff167fddf252ad1be2c89b69c2b068fc378daa952ba7f163c4a11628f55a4df523b3ef8360405161216e91906126cd565b60405180910390a35050565b8280548282559060005260206000209081019282156121b6579160200282015b828111156121b557825182559160200191906001019061219a565b5b5090506121c391906121c7565b5090565b5b808211156121e05760008160009055506001016121c8565b5090565b6000604051905090565b600080fd5b600080fd5b600080fd5b600080fd5b6000601f19601f8301169050919050565b7f4e487b7100000000000000000000000000000000000000000000000000000000600052604160045260246000fd5b61224b82612202565b810181811067ffffffffffffffff8211171561226a57612269612213565b5b80604052505050565b600061227d6121e4565b90506122898282612242565b919050565b600067ffffffffffffffff8211156122a9576122a8612213565b5b6122b282612202565b9050602081019050919050565b82818337600083830152505050565b60006122e16122dc8461228e565b612273565b9050828152602081018484840111156122fd576122fc6121fd565b5b6123088482856122bf565b509392505050565b600082601f830112612325576123246121f8565b5b81356123358482602086016122ce565b91505092915050565b6000819050919050565b6123518161233e565b811461235c57600080fd5b50565b60008135905061236e81612348565b92915050565b600073ffffffffffffffffffffffffffffffffffffffff82169050919050565b600061239f82612374565b9050919050565b6123af81612394565b81146123ba57600080fd5b50565b6000813590506123cc816123a6565b92915050565b600067ffffffffffffffff8211156123ed576123ec612213565b5b602082029050602081019050919050565b600080fd5b6000612416612411846123d2565b612273565b90508083825260208201905060208402830185811115612439576124386123fe565b5b835b81811015612462578061244e888261235f565b84526020840193505060208101905061243b565b5050509392505050565b600082601f830112612481576124806121f8565b5b8135612491848260208601612403565b91505092915050565b600080600080600060a086880312156124b6576124b56121ee565b5b600086013567ffffffffffffffff8111156124d4576124d36121f3565b5b6124e088828901612310565b95505060206124f18882890161235f565b9450506040612502888289016123bd565b935050606086013567ffffffffffffffff811115612523576125226121f3565b5b61252f8882890161246c565b925050608086013567ffffffffffffffff8111156125505761254f6121f3565b5b61255c8882890161246c565b9150509295509295909350565b600081519050919050565b600082825260208201905092915050565b60005b838110156125a3578082015181840152602081019050612588565b60008484015250505050565b60006125ba82612569565b6125c48185612574565b93506125d4818560208601612585565b6125dd81612202565b840191505092915050565b6000602082019050818103600083015261260281846125af565b905092915050565b600061261582612374565b9050919050565b6126258161260a565b811461263057600080fd5b50565b6000813590506126428161261c565b92915050565b6000806040838503121561265f5761265e6121ee565b5b600061266d85828601612633565b925050602061267e8582860161235f565b9150509250929050565b60008115159050919050565b61269d81612688565b82525050565b60006020820190506126b86000830184612694565b92915050565b6126c78161233e565b82525050565b60006020820190506126e260008301846126be565b92915050565b6126f181612394565b82525050565b600060208201905061270c60008301846126e8565b92915050565b600060ff82169050919050565b61272881612712565b82525050565b6000602082019050612743600083018461271f565b92915050565b60006020828403121561275f5761275e6121ee565b5b600061276d8482850161235f565b91505092915050565b60008060006060848603121561278f5761278e6121ee565b5b600061279d86828701612633565b93505060206127ae86828701612633565b92505060406127bf8682870161235f565b9150509250925092565b600080604083850312156127e0576127df6121ee565b5b60006127ee858286016123bd565b92505060206127ff8582860161235f565b9150509250929050565b600080604083850312156128205761281f6121ee565b5b600061282e8582860161235f565b925050602061283f85828601612633565b9150509250929050565b60006020828403121561285f5761285e6121ee565b5b600061286d84828501612633565b91505092915050565b61287f81612712565b811461288a57600080fd5b50565b60008135905061289c81612876565b92915050565b600080604083850312156128b9576128b86121ee565b5b60006128c785828601612633565b92505060206128d88582860161288d565b9150509250929050565b6128eb8161260a565b82525050565b600060208201905061290660008301846128e2565b92915050565b60008060408385031215612923576129226121ee565b5b600061293185828601612633565b925050602061294285828601612633565b9150509250929050565b60008060408385031215612963576129626121ee565b5b60006129718582860161235f565b9250506020612982858286016123bd565b9150509250929050565b7f57616e6e6150726f6a6563743a206f6e6c7920666163746f727920706f73736960008201527f626c650000000000000000000000000000000000000000000000000000000000602082015250565b60006129e8602383612574565b91506129f38261298c565b604082019050919050565b60006020820190508181036000830152612a17816129db565b9050919050565b7f4e487b7100000000000000000000000000000000000000000000000000000000600052603260045260246000fd5b7f4e487b7100000000000000000000000000000000000000000000000000000000600052601160045260246000fd5b6000612a878261233e565b91507fffffffffffffffffffffffffffffffffffffffffffffffffffffffffffffffff8203612ab957612ab8612a4d565b5b600182019050919050565b7f4e487b7100000000000000000000000000000000000000000000000000000000600052602260045260246000fd5b60006002820490506001821680612b0b57607f821691505b602082108103612b1e57612b1d612ac4565b5b50919050565b60008190508160005260206000209050919050565b60006020601f8301049050919050565b600082821b905092915050565b600060088302612b867fffffffffffffffffffffffffffffffffffffffffffffffffffffffffffffffff82612b49565b612b908683612b49565b95508019841693508086168417925050509392505050565b6000819050919050565b6000612bcd612bc8612bc38461233e565b612ba8565b61233e565b9050919050565b6000819050919050565b612be783612bb2565b612bfb612bf382612bd4565b848454612b56565b825550505050565b600090565b612c10612c03565b612c1b818484612bde565b505050565b5b81811015612c3f57612c34600082612c08565b600181019050612c21565b5050565b601f821115612c8457612c5581612b24565b612c5e84612b39565b81016020851015612c6d578190505b612c81612c7985612b39565b830182612c20565b50505b505050565b600082821c905092915050565b6000612ca760001984600802612c89565b1980831691505092915050565b6000612cc08383612c96565b9150826002028217905092915050565b612cd982612569565b67ffffffffffffffff811115612cf257612cf1612213565b5b612cfc8254612af3565b612d07828285612c43565b600060209050601f831160018114612d3a5760008415612d28578287015190505b612d328582612cb4565b865550612d9a565b601f198416612d4886612b24565b60005b82811015612d7057848901518255600182019150602085019450602081019050612d4b565b86831015612d8d5784890151612d89601f891682612c96565b8355505b6001600288020188555050505b505050505050565b7f57616e6e6150726f6a6563743a204c4f434b4544000000000000000000000000600082015250565b6000612dd8601483612574565b9150612de382612da2565b602082019050919050565b60006020820190508181036000830152612e0781612dcb565b9050919050565b7f57616e6e6150726f6a6563743a20766f74696e67206e6f7420646f6e65000000600082015250565b6000612e44601d83612574565b9150612e4f82612e0e565b602082019050919050565b60006020820190508181036000830152612e7381612e37565b9050919050565b7f57616e6e6150726f6a6563743a20766f74696e6720636f6e6669726d65640000600082015250565b6000612eb0601e83612574565b9150612ebb82612e7a565b602082019050919050565b60006020820190508181036000830152612edf81612ea3565b9050919050565b7f57616e6e6150726f6a6563743a2066756e64696e6720636f6d706c6574650000600082015250565b6000612f1c601e83612574565b9150612f2782612ee6565b602082019050919050565b60006020820190508181036000830152612f4b81612f0f565b9050919050565b7f57616e6e6150726f6a6563743a206e6f742066756e64696e6700000000000000600082015250565b6000612f88601983612574565b9150612f9382612f52565b602082019050919050565b60006020820190508181036000830152612fb781612f7b565b9050919050565b7f576e6e6150726f6a6563743a2066756e64696e6720636f6d706c657465000000600082015250565b6000612ff4601d83612574565b9150612fff82612fbe565b602082019050919050565b6000602082019050818103600083015261302381612fe7565b9050919050565b7f57616e6e6150726f6a6563743a206e6f7420766f74696e670000000000000000600082015250565b6000613060601883612574565b915061306b8261302a565b602082019050919050565b6000602082019050818103600083015261308f81613053565b9050919050565b7f57616e6e6150726f6a6563743a206e6f742073706f6e736f7200000000000000600082015250565b60006130cc601983612574565b91506130d782613096565b602082019050919050565b600060208201905081810360008301526130fb816130bf565b9050919050565b7f57616e6e6150726f6a6563743a20766f74696e672073686f756c64206265207060008201527f726f206f7220636f6e0000000000000000000000000000000000000000000000602082015250565b600061315e602983612574565b915061316982613102565b604082019050919050565b6000602082019050818103600083015261318d81613151565b9050919050565b7f57616e6e6150726f6a6563743a20616c726561647920766f7465640000000000600082015250565b60006131ca601b83612574565b91506131d582613194565b602082019050919050565b600060208201905081810360008301526131f9816131bd565b9050919050565b7f57616e6e6150726f6a6563743a206f6e6c79206c61756e636865722063616e00600082015250565b6000613236601f83612574565b915061324182613200565b602082019050919050565b6000602082019050818103600083015261326581613229565b9050919050565b7f57616e6e6150726f6a6563743a20616c726561647920636c61696d6564000000600082015250565b60006132a2601d83612574565b91506132ad8261326c565b602082019050919050565b600060208201905081810360008301526132d181613295565b9050919050565b7f57616e6e6150726f6a6563743a2066756e64696e67206e6f7420636f6d706c6560008201527f7465000000000000000000000000000000000000000000000000000000000000602082015250565b6000613334602283612574565b915061333f826132d8565b604082019050919050565b6000602082019050818103600083015261336381613327565b9050919050565b7f57616e6e6150726f6a6563743a20766f746520726573756c74206e6f7420636f60008201527f6e6669726d656400000000000000000000000000000000000000000000000000602082015250565b60006133c6602783612574565b91506133d18261336a565b604082019050919050565b600060208201905081810360008301526133f5816133b9565b9050919050565b60006134078261233e565b91506134128361233e565b925082820390508181111561342a57613429612a4d565b5b92915050565b600061343b8261233e565b91506134468361233e565b925082820190508082111561345e5761345d612a4d565b5b92915050565b7f57616e6e6150726f6a6563743a2063616e6e6f74207472616e7366657220776860008201527f696c6520766f74696e6700000000000000000000000000000000000000000000602082015250565b60006134c0602a83612574565b91506134cb82613464565b604082019050919050565b600060208201905081810360008301526134ef816134b3565b9050919050565b60006135018261233e565b915061350c8361233e565b925082820261351a8161233e565b9150828204841483151761353157613530612a4d565b5b5092915050565b7f4e487b7100000000000000000000000000000000000000000000000000000000600052601260045260246000fd5b60006135728261233e565b915061357d8361233e565b92508261358d5761358c613538565b5b82820490509291505056fea2646970667358221220bb93501d8306ab052453c260bfd2652016775a165740c3f931fbcbc706e445e964736f6c63430008110033a2646970667358221220a95dc31d6d833d810dfb47eda117f49df123531bf77a87ab6c2e8e41ba6cb6f464736f6c63430008110033",
  "linkReferences": {},
  "deployedLinkReferences": {}
}